:1010000000000420BD120000E5120000E7120000FD
:10101000E9120000EB120000ED12000000000000D9
:10102000000000000000000000000000EF120000BF
:10103000F112000000000000F3120000F5120000A1
:10104000F7120000F7120000B1290000812A000009
:10105000552C0000F7120000F7120000F7120000F4
:10106000F7120000F7120000F7120000F71200005C
:10107000F7120000F7120000F7120000F71200004C
:10108000F7120000F7120000F7120000F71200003C
:10109000F7120000F7120000F7120000F71200002C
:1010A000F7120000F7120000F7120000F71200001C
:1010B000F7120000F712000000000000000000001E
:1010C000F7120000F7120000F7120000F7120000FC
:1010D000F7120000F7120000F7120000F7120000EC
:1010E000F7120000F7120000F712000000000000E5
:1010F00000000000F712000000000000F7120000DE
:1011000000000000000000000000000000000000DF
:1011100000000000000000000000000000000000CF
:1011200000000000000000000000000000000000BF
:1011300000000000000000000000000000000000AF
:10114000000000000000000000000000000000009F
:10115000000000000000000000000000000000008F
:10116000000000000000000000000000000000007F
:10117000000000000000000000000000000000006F
:10118000000000000000000000000000000000005F
:10119000000000000000000000000000000000004F
:1011A000000000000000000000000000000000003F
:1011B000000000000000000000000000000000002F
:1011C000000000000000000000000000000000001F
:1011D000000000000000000000000000000000000F
:1011E00000000000000000000000000000000000FF
:1011F00000000000000000000000000000000000EF
:1012000010B5054C237833B9044B13B10448AFF340
:1012100000800123237010BDB000002000000000FA
:101220009456000008B5034B1BB103490348AFF3C4
:10123000008008BD00000000B400002094560000AB
:10124000A3F5803A704700BF174B002B08BF134B24
:101250009D46FFF7F5FF00218B460F461348144AC1
:10126000121A03F093FA0E4B002B00D098470D4B47
:10127000002B00D098470020002104000D000D48ED
:10128000002802D00C48AFF3008003F04DFA200094
:10129000290002F00FFD03F033FA00BF0000080040
:1012A000000000000000000000000420B00000204A
:1012B000F408002000000000000000000649074A72
:1012C000074B9B1A03DD043BC858D050FBDC02F0EF
:1012D0003FFDFFF7B9FF0000EC56000008000020BA
:1012E000B0000020FEE7FEE7FEE7FEE7FEE7FEE7D0
:1012F000FEE7FEE7FEE7FEE7F0B595B008460024FE
:101300000E4617461D4601F073F91A9A0D922346B0
:10131000082205A93046CDE9095408978DF82C40DC
:101320000C9401F0C9F9DDE906219DF814308DF81F
:101330001140CDE9021203F00302012A28D0022A4B
:1013400004D0304601F058F915B0F0BDBDF8165084
:10135000C3F3C203C5F389158DF810300827082D93
:101360002C4628BF08243B4622460EA9304601F0F1
:10137000A3F92D1B08AB02AA21460EA8274400F0B2
:1013800089FB002DEBD1304601F036F915B0F0BDE8
:10139000BDF814100598C1F38312C3F3C203C0F360
:1013A0009525C1F383148DF810300EA930469200B4
:1013B000082301F081F908AB0093224602AB0EA985
:1013C000284600F0F1FA304601F016F915B0F0BDEC
:1013D000704700BF00B583B0044B0093044A40231C
:1013E000FFF78AFF03B05DF804FB00BFF5130000B0
:1013F000D000002038B50F480F4D03780F4CEB5C40
:101400004FF0000C84F800C0D2B253B1043002F0A7
:10141000F9FB58B90A4B1B7813B12378002BFCD089
:1014200038BD0C3002F000F90028F3D000F03AFC8F
:10143000F0E700BF0800002028060020100100206F
:10144000CC00002010B51548154A0378D35C88B04D
:10145000C3B1043002F01EFB124C0FCCEC46ACE8DA
:101460000F0094E80F008CE80F0006230B48009350
:101470000022694601F060FA40B90B4B00221A7055
:1014800008B010BD0C3002F049F8E5E700F00AFCA6
:10149000054B00221A7008B010BD00BF08000020E4
:1014A00028060020C8470000CC00002070B5304D51
:1014B00084B005F5836000F06FFC05F2144000F085
:1014C0006BFCAB68DAB2D11C05EB810015F821107A
:1014D0004C0710D501F00404017801F00301012943
:1014E00038D0022903F1020602F1030126D005EBF0
:1014F0008100002CF0D105EB82015A1CC8680190D4
:10150000D2B205EB820200F003010129D66803F193
:10151000020425D002290FD1BDF80630C3F3891388
:101520000333360C04EB9304124800F041FC00B185
:10153000AC60304604B070BD0026F5E7438806EB8A
:101540009313DAB2D11C05EB810015F8211001F0DC
:101550000404CEE702880233C2F383121344F0E797
:10156000BDF80430C3F38313360C1C44DCE700BF22
:10157000E4010020F805002030B499B10D490E4D6A
:10158000491BC90813D00D4C002302E001339942D6
:101590000AD034F823208242F8D1184655F830009A
:1015A00030BC7047044DF9E7002030BC7047084656
:1015B000F6E700BFC056000098560000AC000020BF
:1015C000094B013903EBC00003290BD8DFE801F018
:1015D00004020806042070470220704740797047D3
:1015E000007970470020704798560000704700BF90
:1015F0002DE9F0438E4CD4E901239A4285B060D0A6
:101600000023C4F81834BFF34F8FA568EAB2D31C87
:1016100004EB830114F82330580718D566680B785B
:1016200003F00303012B42D0022B03D14B88023578
:1016300005EB9315EAB2D4F81804D31C04EB83012C
:1016400028B9AE4239D914F823305B07E7D404EB4C
:1016500082026B1CDBB2D26804EB830302F003014D
:10166000DB680229CDE9012305F102062DD001290D
:1016700000F08D80D4F810543DB12B6828469B684B
:101680009847EB681D68002DF7D16A486A4B6B4993
:10169000C01AC008000440F0020000F0D5F8D4E9F8
:1016A0000130C01A18BF012005B0BDE8F0830B88D7
:1016B0000235C3F383131D44BCE7A66005B0BDE843
:1016C000F083002005B0BDE8F083BDF806305C482B
:1016D000C3F389184546502D28BF502505F1080150
:1016E00065F38F13C1F30901ADF8063000F036FF42
:1016F00007460028BED000F07BFF0023082201A986
:10170000384600F0A5FFF343DBB20133B5EB830F9E
:101710004FEA830279D9F1B25FFA82F9033104EB1F
:10172000810138460823A5EB090500F091FFEDB2D1
:1017300009F10803434903F0FC032A46384600F048
:1017400087FF08F1030806EB9806D4F81834002B3D
:1017500069D1D4F8105465B1EB685A7928463946F6
:10176000002A5CD02B681B689847EB681D68002D29
:10177000F2D1384600F040FF002000F0D9FAD4F84A
:10178000183403B9A660002000F0DAFA87E7BDF844
:1017900004202B48C2F38313062B28BF062363F3D0
:1017A0008912023303F00F018900ADF8042000F024
:1017B000D5FE074600283FF45DAF00F019FF002377
:1017C000082201A9384600F043FFBDF8043013F4A5
:1017D000707FBAD06FF001094FF00808A9EB050936
:1017E000F1B203314346042204EB8101384600F094
:1017F0002FFFBDF804300136C3F3831309EB060253
:10180000934208F10408EBD89FE7F1B203312A466E
:1018100004EB81010823384600F01AFF91E71D68A8
:10182000002D99D1A5E7384600F0E6FE37E700BF66
:10183000E4010020B8560000985600000848000057
:10184000D0560000F00100202DE9F041294C064659
:101850000020884600F06CFAD4E9017303F5807328
:10186000DB1B012B44D804F21C450121284600F063
:101870007BFAFFF71BFE0146284600F075FAD4E913
:10188000012303F580739B1A012BEED9D3B20333E6
:1018900002320521002044F82310626000F050FA63
:1018A0000021154800F056FA80F310037A1CF1006D
:1018B00001F03801D2B2FFB21B0441F0010104EB88
:1018C0008202033743EA164341EA8821D36044F891
:1018D000271023781BB9FFF789FEBDE8F081FFF7D9
:1018E00087FE0028F7D0FFF783FE0028F7D1F2E744
:1018F0003A46CBE7E40100200006002038B5084B4B
:10190000D3F8104401251D704CB1E3685D71236864
:1019100020465B689847E3681C68002CF5D138BD09
:10192000E401002030B5C38885B004460D4623BBD2
:10193000237A052B1FD0627A82B9144AA08852F804
:10194000232003920021FFF717FE039A1049034654
:10195000284605B0BDE8304000F07EBA1946A088A0
:10196000FFF72EFE0B4B0C4953F82020284600F0C1
:1019700073FA237AE1E705B030BD08490091084ABF
:101980000849284600F068FAD2E700BFEC4800009A
:101990004C480000C848000048480000404800008B
:1019A00020480000284800002DE9F04385B01D467E
:1019B0000C9C002394F80C90237380460E46174627
:1019C00021462846FFF7AEFF062F09D8DFE807F0CB
:1019D000042E343B444F1F004146204600F03CFAA1
:1019E0002B7A052B05D06B7A5BB92749204600F08E
:1019F00033FA204600F024FA84F80C9005B0BDE8D4
:101A0000F083224A2249204600F026FAEDE7736966
:101A1000039333690293F3680193B3680093D6E9A3
:101A200000234146204600F017FAD9E732684146C4
:101A3000204600F011FAD3E7D6E9002341462046BC
:101A400000F00AFACCE7B3680093D6E900234146D8
:101A5000204600F001FAC3E7F3680193B3680093EE
:101A6000D6E900234146204600F0F6F9B8E733698D
:101A70000293F3680193B3680093D6E900234146CB
:101A8000204600F0E9F9ABE7584800004048000064
:101A900048480000082900D970472DE9F04F1D463D
:101AA00083B000241B7B2C730E4607462946104644
:101AB00090460193DFF8D0B0DFF8D0A0FFF732FFF7
:101AC00005E03A5D013400F0C7F9082C09D0A642C0
:101AD00051462846F5D85946013400F0BDF9082C86
:101AE000F5D12449DFF8A8B0234CDFF8A8A0284698
:101AF00000F0B2F94FF0000917E017F80910481C80
:101B00007E294FF02E02C0B206D810F80A2012F03B
:101B1000970F14BF0A462E222146284609F10109D3
:101B200000F09AF9B9F1080F0AD04E45E5D85946A8
:101B3000284609F1010900F08FF9B9F1080FF4D135
:101B400098F80830052B02D098F809305BB90B499A
:101B5000284600F081F9284600F072F9019B2B73AA
:101B600003B0BDE8F08F064A0649284600F074F934
:101B7000EDE700BF684800006C48000058480000CE
:101B80004048000048480000644800005C480000ED
:101B9000544800008E5500000A4B185C1F288ABF6D
:101BA00009494FF0A04100F01F00D1F8043501228F
:101BB000824022EA03001340C1F80805C1F80C3541
:101BC000704700BF0049000000030050C30706D45F
:101BD000830742BF2F4B0C22C3F81827704710B45D
:101BE0004FF08043D3F84036DA0723D44FF0A043B8
:101BF000284903224024C3F81827C3F82027C1F836
:101C00002427C3F83027C3F808454FF400724FF477
:101C10008074C3F80845C1F808254FF48052810745
:101C2000C3F8082503D51B4B0C22C3F818275DF811
:101C3000044B70474FF01023D3F8043303F007032D
:101C4000072BD3D1144A0123C2F80435D2F800344B
:101C5000002BFBD04FF010210020D1F804330E4CA4
:101C600023F0070343F00403C1F80433C2F804056A
:101C7000D4F80034002BFBD0BFF34F8F0749084B3B
:101C8000CA6802F4E0621343CB60BFF34F8F00BF1A
:101C9000FDE700BF0003005000E0014000ED00E060
:101CA0000400FA0500B585B00346002101AA44F2FC
:101CB0000100CDE90111039300F004F805B05DF8CF
:101CC00004FB00BF10B572B6FFF718FEFFF790FCDB
:101CD0000028FBD1104B114C1149E41AE4082404EC
:101CE00044F00100FFF7B0FD0E4BD3F8F030DB07F6
:101CF00000D500BE0C4944F00200FFF7A5FDBFF37C
:101D00004F8F0849094BCA6802F4E0621343CB6065
:101D1000BFF34F8F00BFFDE798560000B856000094
:101D20000449000000ED00E0104900000400FA053D
:101D300072B6024A1368013313607047040600202C
:101D4000034A1368013B136003B962B6704700BFD2
:101D500004060020034653E8000F0A4643E8002C1F
:101D60009CF0000FF7D17047034653E8002F02EBB9
:101D7000010043E8000C9CF0000FF6D1704700BF53
:101D8000034653E8002FA2EB010043E8000C9CF04F
:101D9000000FF6D1704700BF0346012253E8001F31
:101DA00041EA020043E8000C9CF0000FF6D17047B6
:101DB0000346002253E8000F00EA020143E8001C3A
:101DC0009CF0000FF6D1704738B504460020FFF7AD
:101DD000AFFFD4E900311A688A4215D9511E196043
:101DE0002168A36812F8012C208A0D68E4685B1B47
:101DF00000FB02440A79DBB29A4200D20B71002048
:101E0000FFF79EFF204638BD00240020FFF798FF13
:101E1000204638BD38B5054600200C46FFF788FF40
:101E20002A681368591C1160E9682A8A641AB4FB8D
:101E3000F2F41C70BDE838400020FFF781BF00BFFE
:101E4000826842B110B50446436901680069984749
:101E50000023A36010BD70470EB400B582B0039993
:101E600021B104AB01AA019300F0B6F802B05DF80D
:101E700004EB03B0704700BF2DE9F04F154683B067
:101E8000A942DDF830900D9A0F4606469A46C0F0FA
:101E90009E800B464FF00108B3FBF5F39D4208F11D
:101EA0000108F9D9D04538BFD04612F0010301939B
:101EB00002D1B9F1000F67D1B268BAF1010F4FF04A
:101EC000010406D90AF1FF3ABAF1010F05FB04F447
:101ED000F8D8B7FBF4F39D4205D805FB04F4B7FB33
:101EE000F4F39D42F9D9DFF8ECA007E0AC42B4FB73
:101EF000F5F31AD3B2681C46B7FBF3F31AF803B034
:101F0000BBF10A0F04FB137728D03368511CB16072
:101F100003F802B0D6E901329A42E7D33046FFF720
:101F20008FFFB4FBF5F3AC42E4D2019B9BB1B9F156
:101F3000000F10D02024C84509F1FF390BD2B36837
:101F40003268591CB160D454D6E901329A4214D295
:101F5000B9F1000FEFD103B0BDE8F08F511C336829
:101F6000B1604FF00D019954D6E901329A42CCD3B9
:101F70003046FFF765FFB268C7E73046FFF760FFFE
:101F8000B9F1000FD7D1E6E793071AD42024B2683D
:101F9000C84502F1010190D23368B1609C54D6E982
:101FA00001329A4209F1FF3903D2B9F1000FEFD1A2
:101FB00083E73046FFF744FFB268B9F1000FE7D17D
:101FC0007BE7BAF1000F0CBF30242024DFE74FF08D
:101FD000010867E720490000002900F05C822DE934
:101FE000F04FDFF870950D7885B0064690460C46A8
:101FF0004FF00D0A0FE00A2DB36800F08E803268B2
:10200000591CB160D554D6E901329A4280F08180E2
:102010002578002D69D00134002D66D0252DEAD118
:102020000027234614F8012B2D2A6CD0302A6DD0BE
:102030002B2A61D02A2A7FD0A2F1300109294FF042
:1020400000050BD805EB850502EB450513F8012FBC
:10205000A2F130010929A5F13005F3D92E2A1C4639
:1020600075D0002301E014F8012F02F0FB0168296C
:10207000F9D0252A00F08681583AD1B2202930D8EB
:10208000202A2ED8DFE812F021002D002D002D008F
:102090002D002D002D002D002D002D002D00FE0007
:1020A00079002D002D002D002D0079002D002D0030
:1020B0002D002D002D002D00BD002D002D001A013A
:1020C0002D0016012D002D002100D8F8001010223F
:1020D000081DC8F8000009683046CDE90057FFF731
:1020E000CBFE01342578002D95D1337B002B40F0B9
:1020F000438105B0BDE8F08F234614F8012B2D2A4B
:1021000047F0040792D147F001078AE747F002073A
:1021100087E73046FFF794FE7AE73268591CB160D2
:1021200002F803A0D6E901239342FFF468AF3046DA
:10213000FFF786FEB36862E7D8F80020111DC8F8E3
:10214000001015685A782E2A03F1010489D16278AB
:10215000A2F13003092B04F101044FF0000384D8ED
:1021600003EB830302EB430314F8012FA2F13001C8
:102170000929A3F13003F3D977E7D8F80020111D1E
:10218000C8F80010D2F800B08BEAEB72A2EBEB7249
:10219000092A40F3DB81DFF8C0C30120114663291F
:1021A000ACFB02E200F101004FEAD202F6DC9842F9
:1021B000024638BF1A460292002D00F01E81BBF184
:1021C000000FC0F22E817A0700F12B81B80740F191
:1021D0002A81002B40F02781BBF1000FC0F27D81E6
:1021E0007A0700F18D8107F00302022A00F05D8179
:1021F000CDE9005759460A223046FFF73DFE01342B
:1022000070E7D8F800301A1DC8F800201F68B368BE
:102210003268581C3021B060D154D6E90123934272
:1022200080F0FA80591C3268B1607821D154D6E927
:1022300001329A4280F0EB800F2F03D93B461B09F5
:102240000F2BFCD84FF0805506E00F2D4FEA1513E9
:102250007FF647AFB2681D46B7FBF5F319F803B038
:10226000BBF10A0F05FB137777D03368511CB160BF
:1022700003F802B0D6E901329A42E6D33046FFF7BE
:10228000DFFDE2E7D8F800301A1DC8F800201D78FD
:10229000B3680A2D00F03A813268591CB160D554F8
:1022A000D6E901329A42FFF41CAF3046FFF7C8FD71
:1022B000013417E7D8F800100A2209E7D8F80030EF
:1022C0001A1DC8F8002017F00107D3F800B064D138
:1022D000BBF1000F03D0584602F060FA0746BD423A
:1022E00015D9202201E0BD4211D0B1683368481CE5
:1022F000B0605A54D6E90130984205F1FF35F2D367
:102300003046FFF79DFDBD424FF02002EDD19BF816
:102310000050002D3FF4E5AE0A2DB0680FD03368B1
:10232000421CB2601D54D6E90130984280F0B4805E
:102330001BF8015F002D3FF4D4AE0A2DEFD13368B6
:10234000421CB26003F800A0D6E901309842E6D3FF
:102350003046FFF775FDB068E1E73368511CB160A6
:1023600003F802A0D6E901329A42FFF47EAF30466C
:10237000FFF766FDB26878E7304605B0BDE8F04F7C
:10238000FFF75EBDB3683168581CB060CA54D6E927
:1023900001329A4289D20134A4E69BF80030002B26
:1023A00000F0D680B0685F46CBF101020A2B02EB49
:1023B000070B5ED0411CB16031680B54D6E9013087
:1023C000984248D217F8013F002BEFD15D457FF6C8
:1023D00088AE202702E05D453FF483AEB2683368E3
:1023E000511CB1609F54D6E901329A4205F1FF3584
:1023F000F1D33046FFF724FDEDE7B80705D5002BF4
:102400003FF4EAAEF9073FF5E7AE0025E4E63046D3
:10241000FFF716FDB2680FE73046FFF711FDB3680E
:1024200000E7013DD2E6F9073FF5D6AE002DECD02E
:1024300020220299A942BFF4CFAEB168481CB06017
:1024400030684254D6E90101814205F1FF356CD272
:10245000002DEED1D9E730460292FFF7F1FC17F8D4
:10246000013F002BB2D0029AB0680A2B02EB070B97
:10247000A0D1411CB160316801F800A0D6E901107B
:10248000884297D33046CDE90232FFF7D9FCDDE927
:102490000232B0688EE770473046FFF7D1FC1BF878
:1024A000015F002D7FF438AF1BE6002B7FF4A0AE58
:1024B0008DB1302202998D427FF69AAEB168481CE8
:1024C000B06030684254D6E90101814205F1FF3520
:1024D00035D2002DEED100258AE6B1683268481C5D
:1024E000B060CBF1000B2D205054D6E90121914270
:1024F000FFF479AE30460393FFF7A2FC039B72E62C
:10250000B1683268481CB0602B20EDE73268591C76
:10251000B16002F803A0D6E901239342FFF4BCAEF8
:102520003046FFF78DFCB368B6E630460393FFF7FD
:1025300087FC039B2022002D7FF47BAF65E73046AC
:102540000393FFF77DFC039B3022C2E701202EE6B8
:102550009B463BE720490000CDCCCCCC2DE9F04197
:10256000058A0331043D4E198046B6FBF5F6FFF7A8
:102570002BFCA0B3F6B24FF48073013E0446838077
:10258000C580C0F800802BD00346002508E06279A2
:10259000AE4202F1010262713860C0F800801FD0C3
:1025A00040461F46FFF710FC013503460028EED1D8
:1025B0006779791E17D02246013399421268FBD100
:1025C000D2F800805FB12668002501E03446366805
:1025D000214640460135FFF71DFCAF42F6D80024E6
:1025E0002046BDE8F08120682146FFF713FCF6E79E
:1025F00001210430FFF7B8BB2DE9F0410121044669
:102600000430FFF7BDFB10F0FF0301D0BDE8F081FF
:102610006779791E16D02246013399421268FBD1A0
:10262000D2F80080002FF1D02668002501E0344662
:102630003668214640460135FFF7ECFBAF42F6D83D
:10264000BDE8F08120682146BDE8F041FFF7E2BB1C
:102650002DE9F8438846C788417907FB01F1043921
:1026600002EB030C1E1D6145154638BFCD1AB7425B
:102670000446B6FBF7F207FB126002D8013A246861
:10268000FCD13E1AAE4228BF2E469DB14FF0000944
:102690000430AD1B324608EB0901204402F068F813
:1026A000AF42B14424683E464FF0000028BF2E469A
:1026B000002DEDD1BDE8F8832DE9F8430446C78825
:1026C000407907FB00F0043802EB030C1E1D604547
:1026D000154638BFC51AB7428846B6FBF7F107FB67
:1026E000116202D801392468FCD1BE1AAE4228BF5B
:1026F0002E469DB14FF00009111DAD1B32462144FD
:1027000008EB090002F034F8AF42B14424683E46B9
:102710004FF0000228BF2E46002DEDD1BDE8F88312
:1027200010B584B002780D4C0D4B8DF800208268F6
:10273000B0F804C053F821308DF8062054F8211069
:10274000C268446900690290ADF804C003948DF832
:1027500007206846984704B010BD00BF0806002057
:10276000100600202DE9F04F164690F800A0534ABD
:1027700042F82A60524A42F82A304B7B81B08046A8
:102780000C4663B94F4A002E534608BF32462146D5
:1027900008F1040001B0BDE8F04F00F049BB0B6840
:1027A000494FDFF828B103F5E0724FF0A04340F243
:1027B0000C6143F82210626802F5E0724FF00109E3
:1027C00043F8221021681F2984BF01F01F0103F57F
:1027D000407301228A40C3F8082563681F2B8ABF13
:1027E0003A4A4FF0A04203F01F0309FA03F3C2F87C
:1027F000083523684FF0A04203F5E07340F20D6105
:1028000042F82310636803F5E07347EA090742F8CA
:1028100023104FF48070B847002562681F2A8ABFD2
:102820005B464FF0A04302F01F01D3F8103598BF6C
:102830001146CB40DB073DD423681F2B8ABF5A4685
:102840004FF0A04203F01F0309FA03F3C2F80C355E
:102850004FF48070B84723681F2B86BF03F01F0317
:102860005A464FF0A04209FA03F3C2F808354FF474
:1028700080700135B847092DCFD162681F2A8ABF01
:1028800012494FF0A04102F01F02012303FA02F2A5
:10289000C1F80C254FF48070B84762681F2A86BFC4
:1028A0000A4902F01F024FF0A04101239340C1F8F2
:1028B000083567E7002DE1D164E700BF100600206E
:1028C00008060020212700003049000000030050C6
:1028D00030B50A4B0A4C53F8213054F821100278D5
:1028E00085B0D0E901548DF80020C26801958DF8BB
:1028F000084003926846984705B030BD2006002086
:102900001806002030B50A4B0A4C53F8213054F811
:102910002110027885B0D0E901548DF80020C268FA
:1029200001958DF8084003926846984705B030BD80
:102930002006002018060020F0B5184B067843F852
:102940002620174B0446487F98551546154A8E4653
:10295000096942F8261022789F5CBEE80F0089B012
:10296000EC46ACE80F009EE80F008CE80F000496E0
:102970004FB1002D0C4A694608BF2A46201D00F0C1
:102980007BFF09B0F0BD002D084A694608BF2A4602
:1029900004F10C0000F0CCFC09B0F0BD20060020D2
:1029A0002806002018060020D12800000529000074
:1029B000014B1B68184700BF2C06002038B50C4B94
:1029C000984213D100200D46FFF7B2F9094B1C794C
:1029D00024B10020FFF7B4F9112038BD01222046B0
:1029E0001D601A71FFF7ACF9204638BD002038BDD4
:1029F000002000402C060020034B984203D1034BDB
:102A000000221A601A717047002000402C06002036
:102A10000B7B0246032B1FD8DFE803F026201402AD
:102A20008B68580326D48B685B0315D4D2F84C35D9
:102A30004969994210D000200621C2F80005C2F869
:102A400000157047D2F84C3508699842F3D1D2F896
:102A50003C3549699942EED101207047D2F83C35A6
:102A600009699942E7D1F7E7D2F84C3509699942EB
:102A7000E1D1F1E7D2F84C3508699842DBD1D2E7D1
:102A8000F0B56F4BD3F824218DB052B10022C3F8BA
:102A90002421D3F824210592059AD3F80421002A91
:102AA0007ED0674D674CD5F80431002B36D000231B
:102AB000C5F80431236AD5F8042104925806049A13
:102AC00004D494F82E20002A00F0938013F004051B
:102AD0005FD15D4FDFF868C10FCF07AE0FC63B680F
:102AE0003360CCF86051DCF860310293029BCCF883
:102AF0005C51DCF85C3194F830600393039B002E4A
:102B000072D14F4B0022C3F80022A2604F4AC3F893
:102B100008234F4B0822C3F880211BE0C5F8483139
:102B2000D5F84821237B0192019A002B6BD104F147
:102B30000C0EBEE80F000DF11C0CACE80F0094F871
:102B40003060DEF80030CCF80030002E41D0256A2D
:102B500005F004053A4AD2F8C434C2F8C4349907DF
:102B60000FD501238DF818300EB984F82F6015B1F8
:102B700094F82E301BB1D4E9003106A898470DB067
:102B8000F0BD5A0708D4DB074FD503238DF8183062
:102B9000EAE794F83060DDE702238DF81830E3E7C8
:102BA000284C0222A168C3F80813A260A268C3F8E7
:102BB0000423D3F860211AB1D3F800329D0503D461
:102BC0001F4B01221A625A61012384F82E300DB086
:102BD000F0BD1E4A1E4BC5F80062A660C5F808236A
:102BE0000822C3F88021B2E794F82E30002BB1D030
:102BF00087E721462846FFF70BFF80F00100236A94
:102C000084F82E0062E7114B4FF4007140F202226B
:102C1000C5F80012A260C5F80833A268C5F80423FD
:102C20000123AB602B620DB0F0BD94F82E301BB1C8
:102C300004238DF8183097E78DF8183094E700BF1B
:102C400000300040340600204006002002029C01B3
:102C500000E100E0F0B54FF040238DB0D3F824211F
:102C600052B10022C3F82421D3F824210592059AF9
:102C7000D3F80421002A7FD04FF0402C684CDCF8B8
:102C80000431002B37D00023CCF80431656DDCF81B
:102C9000043104936806049B04D494F86230002B3A
:102CA00000F0948015F004055FD15E4F0FCF07AEA2
:102CB0000FC64FF0402C3B683360CCF86051DCF815
:102CC00060310293029BCCF85C51DCF85C3194F8E3
:102CD00064600393039B002E73D14FF040230022C6
:102CE000C3F80022E263504AC3F808234F4B102276
:102CF000C3F8802119E0CCF84831DCF8482194F879
:102D000040300192019A002B6BD104F1400EBEE8D5
:102D10000F0007AD0FC594F86460DEF800302B603B
:102D2000002E43D0656D05F004054FF04022D2F827
:102D3000C434C2F8C43499070FD501238DF8183074
:102D40000EB984F8636015B194F862301BB1D4E910
:102D50000D3106A898470DB0F0BD5A0708D4DB071F
:102D600053D503238DF81830EAE794F86460DCE764
:102D700002238DF81830E3E7294C0222E16BC3F8F7
:102D80000813E263E26BC3F80423D3F860211AB19D
:102D9000D3F800329D0504D44FF0402301221A627B
:102DA0005A61012384F862300DB0F0BD1E4A1F4BFA
:102DB000CCF80062E663CCF808231022C3F8802127
:102DC000B0E794F86230002BAFD086E704F134010D
:102DD0006046FFF71DFE80F00100656D84F862001B
:102DE00060E7114B4FF4007140F20222CCF8001260
:102DF000E263CCF80833E26BCCF804230123CCF86F
:102E00000830CCF820300DB0F0BD94F862301BB122
:102E100004238DF8183093E78DF8183090E700BF41
:102E2000340600207406002002029C0100E100E04C
:102E30002DE9F84F90F804A0DFF80C81342707FB48
:102E40000AF708EB07069B4696F82D30002B66D153
:102E5000394B05460C46006853F82A109146FFF797
:102E6000ADFD002865D148F80790B060C6F804B001
:102E700086F82F0086F83000637B86F832302368AE
:102E80001F2B86BF03F01F032C4A4FF0A04203F50F
:102E9000E07340F20C6142F8231063681F2B86BF79
:102EA00003F01F03254A4FF0A04203F5E07340F200
:102EB0000C6142F82310D4E900212B68C3F80825DF
:102EC000C3F80C15A268C3F82425B9F1000F1ED071
:102ED0002A68237B42F3073100294FEA123221DBB3
:102EE00001F160415B0101F56141DBB281F8003322
:102EF0002B681A0B43F30733002B08DB104C5B09DC
:102F0000012102F01F0201FA02F244F823203423C7
:102F100003FB0A88012388F82D30BDE8F88F0820CC
:102F2000BDE8F88F074902F00F025B01DBB28B545A
:102F3000DEE71120BDE8F88F44490000000300508F
:102F400000E100E014ED00E0340600200279064BB9
:102F500001684FF0340C0CFB023306200222C1F84A
:102F6000000583F82D207047340600202DE9F0433A
:102F700089B090F804C09DF84040764E002C04685B
:102F80004FF0340000FB0C604FF0000580F82E502D
:102F900002F0604514BF20270027B5F1005F62D121
:102FA0006D4DC4F8085390F82FE00EF0FF05BEF108
:102FB000000F40F0B3800CEB4C0E0CEB8E0E06EBCA
:102FC0008E084FF0010980F82F9088F80C50C4F853
:102FD0008815C4F804514173D4F804110191019982
:102FE000C4F82451D4F8241102910299C4F8605114
:102FF000D4F8601103910399C4F84851D4F84811EA
:103000000491049980F83050C4F85055C0E9043553
:10301000C4F84055C0E90625C4F844254FEA8E0E91
:103020000762C4F84835002F55D14FF40073C4F837
:103030000032022383603423012103FB0CF321625D
:10304000A160F258F518E2B1AB6843F00203AB603F
:10305000AB6843F40073AB60AB68C4F80433002082
:1030600009B0BDE8F083102009B0BDE8F083C305C6
:103070002162616105D5C4F84821D4F8483106932E
:10308000069BD4F84831EBB1D4F804312BB1C4F825
:103090000421D4F804310593059BD4F8243143B3BB
:1030A0000123C4F82421D4F8240107900798D4F808
:1030B0006051D4F80002B5B921626161D4F8483199
:1030C000002BE1D1D4F80431002BE0D1D4F8240155
:1030D0000028D6D0E5E74FF48073C4F800324FF4EF
:1030E00080238360A7E78705C1D5C505C3D4002B1E
:1030F000C7D03423D4F8C424C4F8C42403FB0C6C14
:1031000000238CF82F3082B906EB0E012046FFF722
:103110007FFC002814BF00200320A5E78368C4F8C3
:103120000433112009B0BDE8F08312F0010F18BF7D
:103130004FF4024048F2012308BF032012F0020FAF
:1031400018BF184648F2022312F0040F18BF1846A1
:103150008AE700BF3406002002029C010000000044
:1031600010B5714AD2F8043399058AB068D5D2F8FF
:103170002431002B64D00023C2F82431D2F824314A
:1031800001934FF40171694B0198C2F8081393F849
:10319000291009B901215160634902228DF81820D4
:1031A000D1F88024C1F880249FED5D7B9969D868AF
:1031B000CDE9081283ED067BD3E90012079006A83B
:1031C0009047594AD2F81C31C3B1584B5869196A13
:1031D00088426AD993F8281001F0FF00002964D1D1
:1031E000C2F81C01D2F81C11039103999C68186A5B
:1031F000196A205C01311962C2F81C054A4AD2F8EA
:103200004431DBB10021494BC2F84411D2F84401EA
:1032100093F829100090009809B1012111609A6972
:1032200062B1D8685C6A00210122CDE90704996186
:103230008DF8182006A8D3E9001290470AB010BDF7
:10324000394AD2F804335B07BBD5D2F80831002BDA
:10325000B7D0364B996900293ED00021C2F8081139
:10326000D2F8081104910499D868596AD2F818253F
:1032700042545A6A996901325A625A6A8A42A0D102
:10328000DA69002A31D09A611A69D8685C6ADA6012
:10329000002101220894D961596207905C6819687D
:1032A0008DF8182006A8A0478BE71F4A0020C2F817
:1032B0001C01D2F81C210292029A5A69002A9DD060
:1032C000D3E901215C698DF81800CDE90714586134
:1032D000196806A8904791E7C2F80811D2F80801CA
:1032E00005900598D2F81825C7E793F8292012B958
:1032F0000D4A012151600C4A4FF40171C2F80813C4
:10330000D8685C6A0021012299618DF81820D3E900
:103310000012CDE9070406A8904752E7AFF30080FA
:10332000000000000000000000200040A006002077
:103330002DE9F041734E90F804802C2303FB0863C1
:1033400082B093F82A30002B40F09C8005460C4652
:1033500000686D491746FFF731FB002840F08E806A
:103360002368591C19D01F2B4FF001028ABF6749EF
:103370004FF0A04103F01F0302FA03F3C1F8083530
:1033800023681F2B86BF03F01F03604A4FF0A04243
:1033900003F5E073032142F8231063685A1C0BD035
:1033A0001F2B86BF03F01F03584A4FF0A04203F5BE
:1033B000E073002142F823102B68A269C3F824258A
:1033C000227D637D13432A68C2F86C35D4E900126C
:1033D0002B68C3F81425C3F80C15237D012B5CD092
:1033E0002C2303FB08F3F21857602269F25097B3BD
:1033F0002A68237F0021C2F81C11D2F81C210092F8
:10340000009A2A68C2F84411D2F844210192019A24
:103410002A683F49C2F804132A6842F30731002999
:103420004FEA123232DB01F160415B0101F561418B
:10343000DBB281F800332B6843F30732002A4FEAEE
:10344000133109DB334C5209012301F01F0103FA48
:1034500001F144F822102B680422C3F800252C2324
:1034600003FB086601220023C6E9063386F82930EB
:10347000736186F82A2002B0BDE8F081112002B005
:10348000BDE8F081082002B0BDE8F081224902F0D9
:103490000F025B01DBB28B54CDE7A368591C0BD044
:1034A0001F2B86BF03F01F0318494FF0A04103F5FF
:1034B000E073002241F82320E3685A1C1AD01F2B26
:1034C0008ABF12494FF0A04103F01F03012202FA04
:1034D00003F3C1F80835E3681F2B88BF03F01F030F
:1034E00003F5E0738CBF09494FF0A041032241F876
:1034F0002320E3682A68A168C2F80835C2F81015CD
:103500006EE700BFA00600206131000000030050FC
:103510008000020000E100E014ED00E0F8B503686F
:1035200007793D4C0022C3F800252C2303FB0743F9
:103530005B68C3B10368394AC3F80823036843F3DF
:103540000732002A4FEA13310EDB5209344D203284
:10355000012301F01F0103FA01F145F82210BFF326
:103560004F8FBFF36F8F0368D3F80C65D3F81455F2
:10357000D3F80825D3F810154FF0FF3CC3F814C555
:10358000C3F80CC503686645C3F808C5C3F810C581
:103590000CD01F2E86BF06F01F06224B4FF0A04313
:1035A00006F5E0764FF0020C43F826C06E1C0BD0F7
:1035B0001F2D86BF05F01F051A4B4FF0A04305F5E0
:1035C000E075022643F825604D1C0BD01F2986BFED
:1035D00001F01F01134B4FF0A04301F5E0710225EC
:1035E00043F82150531C0BD01F2A86BF02F01F0244
:1035F0000C4B4FF0A04302F5E072022143F8221079
:103600000068FFF7F9F92C2303FB0744002384F833
:103610002A306360F8BD00BFA006002084020200CB
:1036200000E100E0000300502DE9F041334C90F838
:1036300004E02C2303FB0E438446586984B0002821
:103640004ED15A619960186283F82800DCF8002096
:10365000C2F81C01D2F81C210292029ADCF8002068
:1036600001219160DCF800209D68C2F81C01D2F8AD
:103670001C1101910199196A6E5C196A0131196274
:10368000C2F81C655A6812B104B0BDE8F0815E69E9
:103690001A6ADCF8001096421BD9074602E093F83C
:1036A00028200ABBD1F81C21002AF8D0C1F81C71CF
:1036B000D1F81C210392039A1A6A15F802801A6A3B
:1036C00001321A62C1F81C851A6A9642EAD8DCF8FF
:1036D0000010D1F81C31002BFBD00123CB6004E09B
:1036E000112004B0BDE8F0810F202C2303FB0E4411
:1036F0000023636104B0BDE8F08100BFA006002094
:1037000010B55B4BD3F824218AB0002A58D0002290
:10371000C3F82421D3F82411049102228DF8182033
:103720000499544AD3F88014C3F880149FED4E7B5B
:103730000991D3F83C45D06882ED067BCDE90704BA
:10374000D2E9001306A89847494BD3F8442152B157
:103750000021484AC3F84411D3F844019169039009
:103760000398002961D1424BD3F8202162B1002097
:10377000C3F82001D3F82021029201213D4A029C86
:10378000D9605169002943D1394BD3F85821AAB1E6
:103790000020C3F85801D3F85811364A0191019915
:1037A000516959B1D3F84C458DF81800D2E901316F
:1037B0005061CDE9071406A8116898470AB010BDFA
:1037C000D3F810110029BFD0C3F81021D3F810117D
:1037D000284C05910599A169D3F83C058842B3D1DD
:1037E000E169002933D0C4E90612D3F8002222F09F
:1037F0002002C3F80022E2680792012122698DF8B5
:103800001810089063682168E26006A898479BE753
:10381000D3F84C458DF81800D2E901315061CDE95B
:10382000071406A811689847AEE79FED0F7BD3F801
:103830003C45D0684FF0010CCDE9070482ED067BD2
:10384000D2E900138DF818C006A898478BE7E26804
:10385000A1610123CDE907208DF8183006A8D4E92D
:103860000013984770E700BF000000000000000050
:1038700000200040D00600202DE9F04307797F4E5C
:1038800007EBC70306EB830387B093F82030002BC8
:1038900040F0B58004460D46006879499046FFF730
:1038A0008DF8002840F0A7802B68591C4FEAC70903
:1038B00019D01F2B4FF001028ABF72494FF0A0416F
:1038C00003F01F0302FA03F3C1F808352B681F2B1E
:1038D00086BF03F01F036B4A4FF0A04203F5E0736D
:1038E000032142F823106B685A1C0BD01F2B86BF94
:1038F00003F01F03634A4FF0A04203F5E073002179
:1039000042F823102368AA69C3F824252B7D6A7D19
:103910001A432368C3F86C25D5E900312268C2F840
:103920000C35C2F814152B7D012B73D009EB07025F
:1039300006EB8203C3F804802B6946F82230B8F105
:10394000000F47D021682B7F0022C1F81021D1F849
:103950001011019101992168C1F82021D1F820119D
:10396000029102992168C1F82421D1F82411039110
:1039700003992168C1F84421D1F8441104910499B4
:103980002168C1F85821D1F858210592059A22687A
:103990003D49C2F80413226842F3073100294FEA77
:1039A000123230DB01F160415B0101F56141DBB2B4
:1039B00081F80033226842F30733002B4FEA1231BB
:1039C00009DB324D5B09012201F01F0102FA01F10E
:1039D00045F8231022684F4406EB87060121002397
:1039E00086F820100821C2F80015C6E90633736175
:1039F00007B0BDE8F083112007B0BDE8F0830820D0
:103A000007B0BDE8F083224902F00F025B01DBB290
:103A10008B54CFE7AB68591C0BD01F2B86BF03F02C
:103A20001F0318494FF0A04103F5E073002241F84D
:103A30002320EB685A1C1AD01F2B8ABF11494FF064
:103A4000A04103F01F03012202FA03F3C1F8083575
:103A5000EB681F2B88BF03F01F0303F5E0738CBFD7
:103A600008494FF0A041032241F82320EB68226867
:103A7000A968C2F80835C2F8101557E7D00600202B
:103A800001370000000300501003420000E100E095
:103A900014ED00E02DE9F0410579564C05EBC50326
:103AA00004EB830301465B68006882B0EE00C3B19B
:103AB000514BC0F808330B6843F30732002A4FEA32
:103AC00013330EDB5209DFF838C12032012703F02F
:103AD0001F0307FA03F34CF82230BFF34F8FBFF3F5
:103AE0006F8F731904EB83039A69D0F8003223F0C7
:103AF0002003C0F8003242B10023C0F84431D0F8AE
:103B000044310093009B012343600023C0F85831E7
:103B1000D0F858310193019B7319012204EB830300
:103B2000C2609A69D0F85831002BFBD01AB1D0F896
:103B30004431002BF6D00023C0F800350B684FF05D
:103B4000FF38D3F80CE5D3F814C5D3F80825D3F81B
:103B50001075C3F80C85C3F814850B68C645C3F807
:103B60000885C3F810850CD0BEF11F0F86BF0EF07C
:103B70001F0E22494FF0A0410EF5E07E022341F8CE
:103B80002E30BCF1FF3F0CD0BCF11F0F86BF0CF0F4
:103B90001F0C1A494FF0A0410CF5E07C022341F8BC
:103BA0002C30791C0BD01F2F86BF07F01F0713493D
:103BB0004FF0A04107F5E077022341F82730531C6E
:103BC0000BD01F2A86BF02F01F020C494FF0A04104
:103BD00002F5E072022341F82230FEF70DFF354472
:103BE00004EB8504002384F82030636002B0BDE854
:103BF000F08100BFD00600201003420000030050F7
:103C000000E100E001F0604CBCF1005F30D170B524
:103C100090F804E0264C0EEBCE0C04EB8C0C034623
:103C2000DCF8140082B04FEACE0500283BD1CCF876
:103C30001420CCF808101A68C2F82001D2F820210C
:103C40000192019A1A68C2F85801D2F858210092DC
:103C5000009A1A68DCF81460C2F84415C2F8486586
:103C60001A6801219160DCF804201AB102B070BD1D
:103C7000102070471A6800E0C0B9D2F82011D2F8BD
:103C800058010029F8D088B90121D1601B68D3F808
:103C90005821002AFBD005EB0E0304EB830300221E
:103CA0005A6102B070BD112002B070BD0F20F2E762
:103CB000D006002008B50120FDF788FF00F0F8FCD1
:103CC00000F0BCF900F070FC00F08CFC0022114602
:103CD0001A4B1B481B4D00F023FB184B1A480B22B4
:103CE000002100F01DFB154B18481722002100F0A1
:103CF00017FB00F05BF94FF47A7445F001054FF4BF
:103D00007A40A847013CFAD10221204600F072FC1B
:103D10000120FDF741FF4FF4FA744FF47A40A847B1
:103D2000013CFAD10220FDF737FF4FF4FA744FF44B
:103D30007A40A847013CFAD1EAE700BFA849000051
:103D40005C490000804900006C490000784900008F
:103D500010B44FF08053D3F83021082A23D0844A7E
:103D6000D2F8883043F47003C2F88830BFF34F8F25
:103D7000BFF36F8F4FF08053D3F83021082A00F043
:103D8000B3804FF01023D3F80022002AC0F2BF8086
:103D9000D3F80432002BC0F2BA80764B764A1A6010
:103DA0005DF8044B70474FF080410020C1F80C01D2
:103DB000724AC1F81001C1F83805D3F80414C2F8EA
:103DC0002015D3F80814C2F82415D3F80C14C2F83F
:103DD0002815D3F81014C2F82C15D3F81414C2F80F
:103DE0003015D3F81814C2F83415D3F81C14C2F8DF
:103DF0004015D3F82014C2F84415D3F82414C2F89F
:103E00004815D3F82814C2F84C15D3F82C14C2F86E
:103E10005015D3F83014C2F85415D3F83414C2F83E
:103E20006015D3F83814C2F86415D3F83C14C2F8FE
:103E30006815D3F84014C2F86C15D3F83411D3F8D0
:103E40004434C2F87035052942D84D4B5B5C1BB138
:103E50004C4B4D4AC3F88C264C4B5B5C73B14FF016
:103E600080534B49D3F83021FB20C1F81805082AAC
:103E7000D3F834117FF473AF052929D8454B5B5C27
:103E8000BBB14FF080524FF08040D2F85832D0F89A
:103E9000E41ED2F8304121F00F0103F00F030B4371
:103EA000C0F8E43E082CD2F834117FF458AF05294D
:103EB0000ED8394B5B5C5BB14FF08053374AD3F877
:103EC00030314FF40071082BC2F840167FF447AF31
:103ED0004FF08043D3F80024D2077FF540AF6FF056
:103EE0000102C3F800243AE7D3F83431052B08D98E
:103EF0004FF010224FF08043D2F80822C3F8582523
:103F00003FE7274AD35C002B3FF43BAFF0E7254A5D
:103F10000123C2F80435D2F80034002BFBD04FF057
:103F2000102312211F4AC3F80012D2F80034002BCC
:103F3000FBD04FF0102312211A4AC3F80412D2F812
:103F40000034002BFBD000231649C2F80435D1F809
:103F50000034002BFBD0BFF34F8F0549124BCA68CA
:103F600002F4E0621343CB60BFF34F8F00BFFDE765
:103F700000ED00E0240000200090D00300C00040CD
:103F80009049000000500040488103009049000023
:103F900000F000409049000090490000009002406D
:103FA0008849000000E001400400FA052DE9F047CF
:103FB000DFF884801F4E84B0B02502AF00247D71ED
:103FC0003C71022300943A1D3C213046FEF7CEFF9F
:103FD000BC80022300943A1D3C213046FEF7C6FF08
:103FE0004FF48052BA80022300943A1D3C2130469F
:103FF000FEF7BCFFE946A2B0402341468DF80830E9
:104000000DF1080A80220DF10900013500F0B0FB26
:10401000EDB20094812352463C213046FEF7A6FFC4
:10402000B82D08F18008CD46C8D10837BD46BDE897
:10403000F08700BF34000020F406002070B5B34DB7
:1040400084B04FF4967445F001054FF47A40A847C8
:10405000013CFAD14FF42E40022303AA3C21ADF8D3
:104060000C000094AA48AB4DFEF780FF4FF455407A
:10407000022303AA3C21ADF80C000094A448FEF7EB
:1040800075FF4FF47040022303AA3C21ADF80C00E9
:1040900000949F48FEF76AFF4FF42840022303AACA
:1040A0003C21ADF80C0000949948FEF75FFF4FF4F7
:1040B000F850022303AA3C21ADF80C000094944868
:1040C000FEF754FF4FF45340022303AA3C21ADF8FE
:1040D0000C0000948E48FEF749FF022303AA3C21FE
:1040E0008B480094ADF80C40FEF740FF4FF4804041
:1040F000022303AA3C21ADF80C0000948448FEF78B
:1041000035FF4FF40D40022303AA3C21ADF80C000B
:1041100000947F48FEF72AFF4FF4A050022303AA21
:104120003C21ADF80C0000947948FEF71FFF4FF4D6
:104130000050022303AA3C21ADF80C0000947448FF
:10414000FEF714FF022303AA3C2171480094ADF846
:104150000C40FEF70BFF4FF42040022303AA3C2142
:10416000ADF80C0000946A48FEF700FF4FF44040A1
:10417000022303AA3C21ADF80C0000946448FEF72A
:10418000F5FE4FF45A410223ADF80C10604800943C
:1041900003AA3C21FEF7EAFE2B78002B00F0858075
:1041A000012B00F0A6804FF4014200240223ADF859
:1041B0000C205748009403AA3C21FEF7D7FE2B7829
:1041C000002B7ED0012B00F08880534C00254FF44B
:1041D000594103AAADF80C10022300953C2104F1CB
:1041E0000C00FEF7C3FE4FF4714103AAADF80C10AA
:1041F000022300953C2104F10C00FEF7B7FE4FF4BA
:104200005B4103AAADF80C10022300953C2104F198
:104210000C00FEF7ABFE4FF4804103AAADF80C1082
:10422000022300953C2104F10C00FEF79FFE4FF4A1
:10423000244103AAADF80C10022300953C2104F19F
:104240000C00FEF793FE4FF4264103AAADF80C10C4
:10425000022300953C2104F10C00FEF787FE4FF489
:10426000385103AAADF80C10022300953C2104F14B
:104270000C00FEF77BFE4FF42F40022303AAADF89B
:104280000C003C21009504F10C00FEF76FFE0126A6
:104290004FF40072294625602048667100F076FAD6
:1042A000FFF784FE304604B070BD4FF49051ADF876
:1042B0000C100094022303AA3C211548FEF756FE79
:1042C00071E74FF44F400093ADF80C00022303AAAE
:1042D0003C210F48FEF74AFE77E74FF40F41ADF857
:1042E0000C100094022303AA3C210948FEF73EFE6D
:1042F0006BE74FF40071ADF80C100094022303AA91
:104300003C210348FEF732FE4DE700BFA049000004
:10431000340000204000002028000020F406002087
:104320002DE9F04F89B00C4605938346039200F0C7
:1043300035FA03B204939A4BDFF868A21B79009315
:104340000FFA84FE00230293F146029B049A9342E3
:1043500061DA9BF80030002B5DD00022013292B26E
:104360001BF80230002BF9D10299914253DA8CB23A
:10437000A24250D91D461BF80400611C89B200F00E
:10438000F80600F0F007002D48D1F02E4FD0E02FB6
:1043900054D000F0E005C02D05D18A423BD902344B
:1043A0001BF80100A1B20AB20292059A11680AB282
:1043B000002A2DDD059C65682E68B04228DB02F1DD
:1043C0000052013A55F83220904221DC4A1E12B2C6
:1043D000002AC0F2E280002403E00FFA8CF4A2422B
:1043E00013DB111B01EBD17104EB61010FB289B238
:1043F00055F83760B04205EBC70701F1010CECDC62
:1044000003DA01390AB2A242EBDA0697B0421CD0B5
:10441000029B002B99DA09B0BDE8F08F012DC2D0C4
:104420000C460125A242A6D809B0BDE8F08F8A4209
:1044300004F10204EFD9A4B20225F3E78A4204F1A1
:104440000204E8D9A4B20125ECE7069AD2F804C028
:10445000BCF80620DCF80050002A59D00020BCF837
:10446000046001900746CDF81CB0002E00F08D804E
:10447000039A4B49174407F0070E012202FA0EFE79
:10448000C7F3C4084FFA8EFE00224C79FFB24FEA00
:10449000C8186FEA0E0B114618B99CF8080015F8F9
:1044A000013B013813F0800F00B249443AD10E06A7
:1044B0004BD41F2F49D8009E002E4AD1002C0DBF8F
:1044C000012600260124002458FA81F1002E48D14B
:1044D0001AF801600BEA06060AF8016030494C71CF
:1044E000BCF80460013212B25B00B242DBB211468A
:1044F000D2DB019A013212B211460192BCF80620B9
:104500008A420F46B1DCDDF81CB0069BD3F804C02C
:10451000BCF804304B440FFA83F9029B002BBFF622
:1045200014AF78E711F0800FDCD11F2FDAD8009E8E
:10453000F6B1FCB158FA81F11AF801600BEA0606EF
:104540000AF80160BCF80460CCE7003C18BF012405
:10455000C4E7261E18BF0126344658FA81F1002E02
:10456000B6D01AF801604EEA06060AF80160B5E70F
:10457000012CDFD158FA81F11AF801604EEA0606E3
:104580000AF80160BCF80460ACE7DDF81CB0019BE0
:1045900001331BB29342FBDBB7E7069536E700BF5A
:1045A00028000020F406002030B50D4C85B0002511
:1045B0004FF4214103AAADF80C10022300953C21D1
:1045C0002046FEF7D3FC4FF4484C0095022303AA83
:1045D0003C212046ADF80CC0FEF7C8FC05B030BD4C
:1045E0003400002002484FF40072002100F0CEB8E1
:1045F000F4060020F0B52D4D85B000244FF418537B
:10460000ADF80C3007460E4603AA009402233C2165
:104610002846FEF7ABFC03AA009402233C2128465F
:10462000ADF80C40FEF7A2FC03AA009402233C2143
:1046300028468DF80C408DF80D70FEF797FC03AA04
:10464000022300943C212846ADF80C40FEF78EFC76
:1046500003AA022300943C2128468DF80D608DF8B2
:104660000C40FEF783FC4FF4807103AAADF80C10E8
:10467000022300943C212846FEF778FC4FF47F414A
:1046800003AAADF80C10022300943C212846FEF743
:104690006DFC4FF43C560094022303AA3C212846AB
:1046A000ADF80C60FEF762FC05B0F0BD34000020F0
:1046B00010B59FED0F7B84B0022100234FF0CC7426
:1046C000CDE902410C481A4669468DED007BFEF7A4
:1046D00049F820B90948FEF739FC04B010BDFDF7D0
:1046E000E1FA0648FEF732FC04B010BDAFF30080DB
:1046F0000D0000000F0000003000002034000020FA
:1047000008B5074B044613B10021AFF30080054BF9
:104710001868836A03B19847204600F047F800BF45
:10472000000000009056000070B50D4D0D4C641B4C
:10473000A4100026A64209D10B4D0C4C00F038F80D
:10474000641BA4100026A64205D170BD55F8043B99
:1047500098470136EEE755F8043B98470136F2E7F3
:10476000A4000020A4000020A4000020A800002035
:104770000A44914200F1FF3300D1704710B511F89F
:10478000014B03F8014F9142F9D110BD0244034699
:10479000934200D1704703F8011BF9E7034613F871
:1047A000012B002AFBD1181A01387047FEE700BF21
:1047B000F8B500BFF8BC08BC9E467047F8B500BF0E
:1047C000F8BC08BC9E467047FFFFFFFFFFFFFFFFDE
:1047D000FFFFFFFFFFFFFFFF0000000000000000E1
:1047E0000000D60106010000D513000045140000AA
:1047F000D1130000756172745F6C6F675F626163F3
:104800006B656E64000000004261636B656E6473EB
:1048100020666C757368656400000000617070004C
:104820001B5B313B33316D0025734C6F6773206424
:10483000726F70706564202825642925730D0A0045
:104840001B5B306D00000000257300003C25733EAB
:104850002025733A200000000D0A00002025303288
:1048600078000000202020007C000000256300006C
:104870001B5B313B33306D001B5B313B33326D00D2
:104880001B5B313B33336D001B5B313B33346D00BD
:104890001B5B313B33356D001B5B313B33366D00A9
:1048A0001B5B313B33376D006572726F7200000025
:1048B0007761726E696E6700696E666F0000000056
:1048C00064656275670000004048000070480000A1
:1048D0002048000078480000804800008848000018
:1048E0009048000098480000A04800000000000028
:1048F000A8480000B0480000B8480000C0480000C8
:104900000608290C466174616C206572726F720032
:1049100053797374656D20726573657400000000CF
:1049200030313233343536373839414243444546E5
:104930000338FDD870470000505253005457494D7A
:1049400000000000812A0000552C000055415254FF
:1049500000000000554152544500000072616E6431
:104960002044616972792054656368004E52463272
:1049700020446F6E676C65006932630000000000C0
:104980000338FDD87047000000000000010100005E
:104990000100000000000000000000000000000016
:1049A0000338FDD8704700005F000000244E00006F
:1049B0001C51000008000A000800000028510000F7
:1049C00008000A00080000003451000008000A0036
:1049D000080000004051000008000A000800000024
:1049E0004C51000008000A00080000005851000067
:1049F00008000A00080000006451000008000A00D6
:104A0000080000007051000008000A0008000000C3
:104A10007C51000008000A000800000088510000D6
:104A200008000A00080000009451000008000A0075
:104A300008000000A051000008000A000800000063
:104A4000AC51000008000A0008000000B851000046
:104A500008000A0008000000C451000008000A0015
:104A600008000000D051000008000A000800000003
:104A7000DC51000008000A0008000000E8510000B6
:104A800008000A0008000000F451000008000A00B5
:104A9000080000000052000008000A0008000000A2
:104AA0000C52000008000A00080000001852000024
:104AB00008000A00080000002452000008000A0054
:104AC000080000003052000008000A000800000042
:104AD0003C52000008000A00080000004852000094
:104AE00008000A00080000005452000008000A00F4
:104AF000080000006052000008000A0008000000E2
:104B00006C52000008000A00080000007852000003
:104B100008000A00080000008452000008000A0093
:104B2000080000009052000008000A000800000081
:104B30009C52000008000A0008000000A852000073
:104B400008000A0008000000B452000008000A0033
:104B500008000000C052000008000A000800000021
:104B6000CC52000008000A0008000000D8520000E3
:104B700008000A0008000000E452000008000A00D3
:104B800008000000F052000008000A0008000000C1
:104B9000FC52000008000A00080000000853000052
:104BA00008000A00080000001453000008000A0072
:104BB000080000002053000008000A000800000060
:104BC0002C53000008000A000800000038530000C1
:104BD00008000A00080000004453000008000A0012
:104BE000080000005053000008000A000800000000
:104BF0005C53000008000A00080000006853000031
:104C000008000A00080000007453000008000A00B1
:104C1000080000008053000008000A00080000009F
:104C20008C53000008000A000800000098530000A0
:104C300008000A0008000000A453000008000A0051
:104C400008000000B053000008000A00080000003F
:104C5000BC53000008000A0008000000C853000010
:104C600008000A0008000000D453000008000A00F1
:104C700008000000E053000008000A0008000000DF
:104C8000EC53000008000A0008000000F853000080
:104C900008000A00080000000454000008000A0090
:104CA000080000001054000008000A00080000007E
:104CB0001C54000008000A000800000028540000EE
:104CC00008000A00080000003454000008000A0030
:104CD000080000004054000008000A00080000001E
:104CE0004C54000008000A0008000000585400005E
:104CF00008000A00080000006454000008000A00D0
:104D0000080000007054000008000A0008000000BD
:104D10007C54000008000A000800000088540000CD
:104D200008000A00080000009454000008000A006F
:104D300008000000A054000008000A00080000005D
:104D4000AC54000008000A0008000000B85400003D
:104D500008000A0008000000C454000008000A000F
:104D600008000000D054000008000A0008000000FD
:104D7000DC54000008000A0008000000E8540000AD
:104D800008000A0008000000F454000008000A00AF
:104D9000080000000055000008000A00080000009C
:104DA0000C55000008000A0008000000185500001B
:104DB00008000A00080000002455000008000A004E
:104DC000080000003055000008000A00080000003C
:104DD0003C55000008000A0008000000485500008B
:104DE00008000A00080000005455000008000A00EE
:104DF000080000006055000008000A0008000000DC
:104E00006C55000008000A000800000078550000FA
:104E100008000A00080000008455000008000A008D
:104E20000800000020000000B04900002100000040
:104E3000BC49000022000000C84900002300000017
:104E4000D449000024000000E049000025000000D3
:104E5000EC49000026000000F8490000270000008F
:104E6000044A000028000000104A00002900000049
:104E70001C4A00002A000000284A00002B00000005
:104E8000344A00002C000000404A00002D000000C1
:104E90004C4A00002E000000584A00002F0000007D
:104EA000644A000030000000704A00003100000039
:104EB0007C4A000032000000884A000033000000F5
:104EC000944A000034000000A04A000035000000B1
:104ED000AC4A000036000000B84A0000370000006D
:104EE000C44A000038000000D04A00003900000029
:104EF000DC4A00003A000000E84A00003B000000E5
:104F0000F44A00003C000000004B00003D0000009F
:104F10000C4B00003E000000184B00003F0000005A
:104F2000244B000040000000304B00004100000016
:104F30003C4B000042000000484B000043000000D2
:104F4000544B000044000000604B0000450000008E
:104F50006C4B000046000000784B0000470000004A
:104F6000844B000048000000904B00004900000006
:104F70009C4B00004A000000A84B00004B000000C2
:104F8000B44B00004C000000C04B00004D0000007E
:104F9000CC4B00004E000000D84B00004F0000003A
:104FA000E44B000050000000F04B000051000000F6
:104FB000FC4B000052000000084C000053000000B1
:104FC000144C000054000000204C0000550000006C
:104FD0002C4C000056000000384C00005700000028
:104FE000444C000058000000504C000059000000E4
:104FF0005C4C00005A000000684C00005B000000A0
:10500000744C00005C000000804C00005D0000005B
:105010008C4C00005E000000984C00005F00000017
:10502000A44C000060000000B04C000061000000D3
:10503000BC4C000062000000C84C0000630000008F
:10504000D44C000064000000E04C0000650000004B
:10505000EC4C000066000000F84C00006700000007
:10506000044D000068000000104D000069000000C1
:105070001C4D00006A000000284D00006B0000007D
:10508000344D00006C000000404D00006D00000039
:105090004C4D00006E000000584D00006F000000F5
:1050A000644D000070000000704D000071000000B1
:1050B0007C4D000072000000884D0000730000006D
:1050C000944D000074000000A04D00007500000029
:1050D000AC4D000076000000B84D000077000000E5
:1050E000C44D000078000000D04D000079000000A1
:1050F000DC4D00007A000000E84D00007B0000005D
:10510000F44D00007C000000004E00007D00000017
:105110000C4E00007E000000184E00000000000051
:10512000000000000000000000101010101000101F
:1051300000000000282828000000000000000000F7
:105140000A0A0A7F14FE28282800000010103C508C
:10515000301814781010000042A4A8A8542A2A4A33
:105160008400000000304848324A443A0000000001
:1051700010101000000000000000000008102020A7
:105180002020202010080000201008080808080827
:1051900010200000001092543854921000000000BB
:1051A000000018187E7E18180000000000000000A3
:1051B0000000080810000000000000003C00000093
:1051C00000000000000000000000080800000000CF
:1051D00004040808081010102020000000182424DF
:1051E0002424241800000000000818080808081CDF
:1051F00000000000003804040810203C00000000FB
:1052000000380404180404380000000000040C14E2
:10521000243E040400000000003C2038040404384C
:10522000000000000018202038242418000000008E
:10523000003C04080810102000000000001824247E
:105240001824241800000000001824241C0404184A
:10525000000000000000001010001010000000000E
:1052600000000010100010102000000000000002DC
:105270001C201C02000000000000007E007E0000D8
:1052800000000000000000201C021C2000000000A4
:10529000003804040810001000000000003C429D8B
:1052A000A5A59E403C00000000181824243C424262
:1052B0000000000000784444784444780000000076
:1052C000001E20404040201E0000000000784442A4
:1052D0004242447800000000007C40407840407C1E
:1052E00000000000007C40407C4040400000000086
:1052F000001E20404E42221E00000000004242429A
:105300007E42424200000000003810101010103899
:10531000000000000018080808080830000000001D
:105320000044485060504844000000000020202005
:105330002020203C0000000000C6C6AAAA9292824B
:1053400000000000004262524A4642420000000053
:1053500000384482828244380000000000784444CF
:105360004478404000000000003844828282443883
:105370000E000000007048487050484400000000D3
:10538000003C40403804047800000000007C10100D
:105390001010101000000000004242424242423C05
:1053A00000000000004444442828281000000000A9
:1053B000009292AAAAAAAA44000000000044282849
:1053C0001028284400000000004428281010101065
:1053D00000000000007C04081020407C0000000059
:1053E00038202020202020202038000020201010ED
:1053F000100808080404000038080808080808080D
:1054000008380000001824420000000000000000DE
:105410000000000000000000007E000010080400F2
:10542000000000000000000000000018041C241C04
:1054300000000000404040784444447800000000F0
:105440000000001C2020201C000000000404043C7C
:105450004444443C0000000000000018243C201C90
:10546000000000000C10101C1010101000000000B4
:105470000000003C4444443C043800004040407874
:1054800044444444000000000010001010101010AC
:1054900000000000000800180808080808100000B4
:1054A0004040444850704844000000001000101074
:1054B0001010101000000000000000EC9292929278
:1054C0000000000000000078444444440000000054
:1054D0000000003844444438000000000000007818
:1054E00044444478404000000000003C4444443CB4
:1054F00004040000000000283020202000000000EC
:10550000000000382010083800000000001010389B
:105510001010100800000000000000444444443C07
:1055200000000000000000442828281000000000AF
:105530000000009292AA6C440000000000000024C9
:105540001818182400000000000000442828281023
:105550001020000000000038081020380000000073
:10556000000C080808300808080C00001010101083
:10557000101010101010000000301010100C10103F
:105580001030000040A0400C1010100C0000002053
:1055900020202020202020202828282828202020E3
:1055A0002020202020202020202020202020208893
:1055B00010101010101010101010101010101004F7
:1055C0000404040404040404041010101010101047
:1055D000414141414141010101010101010101013B
:1055E0000101010101010101010110101010101051
:1055F000424242424242020202020202020202020B
:105600000202020202020202020210101010200026
:10561000000000000000000000000000000000008A
:10562000000000000000000000000000000000007A
:10563000000000000000000000000000000000006A
:10564000000000000000000000000000000000005A
:10565000000000000000000000000000000000004A
:10566000000000000000000000000000000000003A
:10567000000000000000000000000000000000002A
:10568000000000000000000000000000000000001A
:085690004400002000000000AE
:1056980038490000000000003C49000000000000FC
:1056A8004C490000000000005449000000000000C0
:0856B8001C4800000000030380
:1056C000E847000000000000F44700001C00002034
:1056D00014010020DC010020E40100201C01002056
:0456E00018000000AE
:0856E4005CBBFF7F0100000028
:1056EC0000000000002000400000000000200040EE
:1056FC000000000000000000FF0000000090D0033C
:10570C00000000000000000000000000003000401D
:10571C00000000000100000001000000000000007B
:10572C00000000000000000000000000000000006D
:10573C00000000000000000000000000000000005D
:10574C00000000000000000000000000000000004D
:10575C00000000000000000000000000000000003D
:10576C00000000000000000000000000000000002D
:10577C0000000000000000000000000025120000E6
:04578C000112000006
:04000003000012BD2A
:00000001FF
