:1010000000000420BD120000E5120000E7120000FD
:10101000E9120000EB120000ED12000000000000D9
:10102000000000000000000000000000EF120000BF
:10103000F112000000000000F3120000F5120000A1
:10104000F7120000F7120000C92A0000992B0000D7
:101050006D2D0000F7120000F7120000F7120000DB
:10106000F7120000F7120000F7120000F71200005C
:10107000F7120000F7120000F7120000F71200004C
:10108000F7120000F7120000F7120000F71200003C
:10109000F7120000F7120000F7120000F71200002C
:1010A000F7120000F7120000F7120000F71200001C
:1010B000F7120000F712000000000000000000001E
:1010C000F7120000F7120000F7120000F7120000FC
:1010D000F7120000F7120000F7120000F7120000EC
:1010E000F7120000F7120000F712000000000000E5
:1010F00000000000F712000000000000F7120000DE
:1011000000000000000000000000000000000000DF
:1011100000000000000000000000000000000000CF
:1011200000000000000000000000000000000000BF
:1011300000000000000000000000000000000000AF
:10114000000000000000000000000000000000009F
:10115000000000000000000000000000000000008F
:10116000000000000000000000000000000000007F
:10117000000000000000000000000000000000006F
:10118000000000000000000000000000000000005F
:10119000000000000000000000000000000000004F
:1011A000000000000000000000000000000000003F
:1011B000000000000000000000000000000000002F
:1011C000000000000000000000000000000000001F
:1011D000000000000000000000000000000000000F
:1011E00000000000000000000000000000000000FF
:1011F00000000000000000000000000000000000EF
:1012000010B5054C237833B9044B13B10448AFF340
:1012100000800123237010BD90000020000000001A
:10122000F844000008B5034B1BB103490348AFF372
:10123000008008BD0000000094000020F844000079
:10124000A3F5803A704700BF174B002B08BF134B24
:101250009D46FFF7F5FF00218B460F461348144AC1
:10126000121A02F09BFF0E4B002B00D098470D4B3B
:10127000002B00D098470020002104000D000D48ED
:10128000002802D00C48AFF3008002F055FF200088
:10129000290002F0BDFD02F03BFF00BF0000080086
:1012A000000000000000000000000420900000206A
:1012B0006C07002000000000000000000649074AFB
:1012C000074B9B1A03DD043BC858D050FBDC02F0EF
:1012D000F1FDFFF7B9FF00005045000008000020B5
:1012E00090000020FEE7FEE7FEE7FEE7FEE7FEE7F0
:1012F000FEE7FEE7FEE7FEE7F0B595B008460024FE
:101300000E4617461D4601F0F1F91A9A0D92234632
:10131000082205A93046CDE9095408978DF82C40DC
:101320000C9401F047FADDE906219DF814308DF8A0
:101330001140CDE9021203F00302012A28D0022A4B
:1013400004D0304601F0D6F915B0F0BDBDF8165006
:10135000C3F3C203C5F389158DF810300827082D93
:101360002C4628BF08243B4622460EA9304601F0F1
:1013700021FA2D1B08AB02AA21460EA8274400F033
:101380006DFC002DEBD1304601F0B4F915B0F0BD85
:10139000BDF814100598C1F38312C3F3C203C0F360
:1013A0009525C1F383148DF810300EA930469200B4
:1013B000082301F0FFF908AB0093224602AB0EA907
:1013C000284600F0D5FB304601F094F915B0F0BD89
:1013D000014B01221A707047F0000020704700BFD7
:1013E00000B583B0044B0093044A4023FFF784FF09
:1013F00003B05DF804FB00BF01140000B000002042
:1014000038B50F480F4D03780F4CEB5C4FF0000CD4
:1014100084F800C0D2B253B1043002F077FC58B95E
:101420000A4B1B7813B12378002BFCD038BD0C304D
:1014300002F07EF90028F3D000F092FCF0E700BF44
:1014400008000020A0060020F0000020AC000020D2
:1014500010B51548154A0378D35C88B0C3B1043081
:1014600002F09CFB124C0FCCEC46ACE80F0094E869
:101470000F008CE80F0006230B48009300226946FA
:1014800001F0E6FA40B90B4B00221A7008B010BD0B
:101490000C3002F0C7F8E5E700F062FC054B0022D3
:1014A0001A7008B010BD00BF08000020A006002080
:1014B000D8410000AC00002010B50F4C0FCC88B014
:1014C000EC46ACE80F0094E80F008CE80F00062310
:1014D0000A4A0B480093694601F0BAFA20B9094B51
:1014E00001221A7008B010BD00F03AFC054B012231
:1014F0001A7008B010BD00BFD8410000D113000021
:1015000008000020AC00002008B5FFF7D5FF044814
:10151000042100F0A9FA034B01225A7108BD00BF53
:10152000244500001C00002070B5304D84B005F546
:10153000836000F08FFC05F2144000F08BFCAB6878
:10154000DAB2D11C05EB810015F821104C0710D53B
:1015500001F00404017801F00301012938D00229C7
:1015600003F1020602F1030126D005EB8100002CF5
:10157000F0D105EB82015A1CC8680190D2B205EB8C
:10158000820200F003010129D66803F1020425D08C
:1015900002290FD1BDF80630C3F389130333360C8B
:1015A00004EB9304124800F061FC00B1AC603046DB
:1015B00004B070BD0026F5E7438806EB9313DAB25A
:1015C000D11C05EB810015F8211001F00404CEE7D1
:1015D00002880233C2F383121344F0E7BDF80430EB
:1015E000C3F38313360C1C44DCE700BFC4010020A6
:1015F000D8050020064B074810B500221A7001F0EC
:1016000029F8044610B9044801F008F9204610BD35
:10161000C4010020344500003042000030B499B1CC
:101620000D490E4D491BC90813D00D4C002302E093
:10163000013399420AD034F823208242F8D1184667
:1016400055F8300030BC7047044DF9E7002030BC3D
:1016500070470846F6E700BF24450000FC44000040
:1016600090000020094B013903EBC00003290BD87F
:10167000DFE801F0040208060420704702207047EA
:10168000407970470079704700207047FC440000A3
:10169000704700BF2DE9F0438E4CD4E901239A42F4
:1016A00085B060D00023C4F81834BFF34F8FA5680D
:1016B000EAB2D31C04EB830114F82330580718D581
:1016C00066680B7803F00303012B42D0022B03D191
:1016D0004B88023505EB9315EAB2D4F81804D31CF5
:1016E00004EB830128B9AE4239D914F823305B07E3
:1016F000E7D404EB82026B1CDBB2D26804EB8303F9
:1017000002F00301DB680229CDE9012305F102069D
:101710002DD0012900F08D80D4F810543DB12B68F4
:1017200028469B689847EB681D68002DF7D16A48EA
:101730006A4B6B49C01AC008000440F0020000F078
:1017400039F9D4E90130C01A18BF012005B0BDE84D
:10175000F0830B880235C3F383131D44BCE7A660F6
:1017600005B0BDE8F083002005B0BDE8F083BDF80A
:1017700006305C48C3F389184546502D28BF5025D4
:1017800005F1080165F38F13C1F30901ADF80630C7
:1017900000F062FF07460028BED000F0A7FF00233C
:1017A000082201A9384600F0D1FFF343DBB2013330
:1017B000B5EB830F4FEA830279D9F1B25FFA82F970
:1017C000033104EB810138460823A5EB090500F03D
:1017D000BDFFEDB209F10803434903F0FC032A46BB
:1017E000384600F0B3FF08F1030806EB9806D4F87A
:1017F0001834002B69D1D4F8105465B1EB685A79CC
:1018000028463946002A5CD02B681B689847EB684D
:101810001D68002DF2D1384600F06CFF002000F06A
:10182000E5FAD4F8183403B9A660002000F0E6FA0F
:1018300087E7BDF804202B48C2F38313062B28BF8B
:10184000062363F38912023303F00F018900ADF818
:10185000042000F001FF074600283FF45DAF00F0D0
:1018600045FF0023082201A9384600F06FFFBDF8AC
:10187000043013F4707FBAD06FF001094FF00808FC
:10188000A9EB0509F1B203314346042204EB8101BF
:10189000384600F05BFFBDF804300136C3F3831314
:1018A00009EB0602934208F10408EBD89FE7F1B276
:1018B00003312A4604EB81010823384600F046FF35
:1018C00091E71D68002D99D1A5E7384600F012FF79
:1018D00037E700BFC40100201C450000FC440000A5
:1018E0001842000034450000D00100202DE9F843E3
:1018F000DFF8BC90054600200F46904600F076FACF
:10190000D9E9016303F580739B1B022B4CD809F2C4
:101910001C440121204600F085FAFFF705FE014630
:10192000204600F07FFAD9E9012303F580739B1A62
:10193000022BEED9D3B2033303324521002049F8FC
:101940002310C9F8042000F059FAB31CDBB209EBEC
:1019500083030021C3F80C80144800F059FA80F387
:101960001003721CE90001F03801D2B2F6B21B0478
:1019700041F0410109EB8202033643EA154341EA93
:101980008727D36049F8267099F800301BB9FFF714
:101990007FFEBDE8F883FFF77DFE0028F7D0FFF754
:1019A00079FE0028F7D1F2E73246C3E7E0050020D0
:1019B000C40100202DE9F041294C0646002088464C
:1019C00000F014FAD4E9017303F58073DB1B012BDB
:1019D00044D804F21C450121284600F023FAFFF701
:1019E000A3FD0146284600F01DFAD4E9012303F5C2
:1019F00080739B1A012BEED9D3B203330232052137
:101A0000002044F82310626000F0F8F90021154826
:101A100000F0FEF980F310037A1CF10001F03801A8
:101A2000D2B2FFB21B0441F0010104EB8202033782
:101A300043EA164341EA8821D36044F8271023780B
:101A40001BB9FFF725FEBDE8F081FFF723FE002854
:101A5000F7D0FFF71FFE0028F7D1F2E73A46CBE7B1
:101A6000C4010020E005002030B4154DD5F8101455
:101A70000446002071B10B4601E01B6853B1DB68DE
:101A80001A798242F9D101300A28F3D14FF0FF30A0
:101A900030BC7047E3681871D5F810344BB1DA6880
:101AA000E36812681A60D5F81034DB681C6030BC3B
:101AB0007047C5F81044E268136030BC704700BF3F
:101AC000C401002038B5084BD3F8104401251D701F
:101AD0004CB1E3685D71236820465B689847E36812
:101AE0001C68002CF5D138BDC401002030B5C38876
:101AF00085B004460D4623BB237A052B1FD0627A9E
:101B000082B9144AA08852F8232003920021FFF7DB
:101B100085FD039A10490346284605B0BDE83040CC
:101B200000F016BA1946A088FFF79CFD0B4B0C4934
:101B300053F82020284600F00BFA237AE1E705B09D
:101B400030BD08490091084A0849284600F000FACB
:101B5000D2E700BF0843000068420000E4420000F2
:101B6000644200005C4200003C420000444200002D
:101B70002DE9F04385B01D460C9C002394F80C9091
:101B8000237380460E46174621462846FFF7AEFFD0
:101B9000062F09D8DFE807F0042E343B444F1F001E
:101BA0004146204600F0D4F92B7A052B05D06B7AFC
:101BB0005BB92749204600F0CBF9204600F0BCF97C
:101BC00084F80C9005B0BDE8F083224A22492046F3
:101BD00000F0BEF9EDE77369039333690293F3688C
:101BE0000193B3680093D6E900234146204600F0F4
:101BF000AFF9D9E732684146204600F0A9F9D3E7AA
:101C0000D6E900234146204600F0A2F9CCE7B368AC
:101C10000093D6E900234146204600F099F9C3E736
:101C2000F3680193B3680093D6E900234146204648
:101C300000F08EF9B8E733690293F3680193B36853
:101C40000093D6E900234146204600F081F9ABE736
:101C5000744200005C42000064420000082900D980
:101C600070472DE9F04F1D4683B000241B7B2C7379
:101C70000E4607462946104690460193DFF8D0B03D
:101C8000DFF8D0A0FFF732FF05E03A5D013400F045
:101C90005FF9082C09D0A64251462846F5D8594686
:101CA000013400F055F9082CF5D12449DFF8A8B02B
:101CB000234CDFF8A8A0284600F04AF94FF00009AD
:101CC00017E017F80910481C7E294FF02E02C0B209
:101CD00006D810F80A2012F0970F14BF0A462E22D9
:101CE0002146284609F1010900F032F9B9F1080F3F
:101CF0000AD04E45E5D85946284609F1010900F0B9
:101D000027F9B9F1080FF4D198F80830052B02D063
:101D100098F809305BB90B49284600F019F92846B4
:101D200000F00AF9019B2B7303B0BDE8F08F064A5F
:101D30000649284600F00CF9EDE700BF8442000098
:101D400088420000744200005C42000064420000CF
:101D5000804200007842000070420000F243000020
:101D600000B585B00346002101AA44F20100CDE987
:101D70000111039300F004F805B05DF804FB00BF07
:101D800010B572B6FFF79EFEFFF784FC0028FBD16A
:101D9000104B114C1149E41AE408240444F00100EA
:101DA000FFF708FE0E4BD3F8F030DB0700D500BE7E
:101DB0000C4944F00200FFF7FDFDBFF34F8F0849C7
:101DC000094BCA6802F4E0621343CB60BFF34F8F44
:101DD00000BFFDE7FC4400001C4500001C43000060
:101DE00000ED00E0284300000400FA0572B6024A44
:101DF00013680133136070477C060020034A1368A0
:101E0000013B136003B962B6704700BF7C06002037
:101E1000034653E8000F0A4643E8002C9CF0000FED
:101E2000F7D17047034653E8002F02EB010043E867
:101E3000000C9CF0000FF6D1704700BF034653E83A
:101E4000002FA2EB010043E8000C9CF0000FF6D13C
:101E5000704700BF0346012253E8001F41EA020019
:101E600043E8000C9CF0000FF6D1704703460022B7
:101E700053E8000F00EA020143E8001C9CF0000F49
:101E8000F6D17047D0B110B4D0E90112521A0468EB
:101E9000D2B2531E2160DBB252B101680A6803F16D
:101EA000FF3C541C0C6013705FFA8CF3FF2BF4D1D1
:101EB0000368002018715DF8044B70470E207047CE
:101EC00038B504460020FFF791FFD4E900311A68C5
:101ED0008A4215D9511E19602168A36812F8012C95
:101EE000208A0D68E4685B1B00FB02440A79DBB2C0
:101EF0009A4200D20B710020FFF780FF204638BDC8
:101F000000240020FFF77AFF204638BD38B505468B
:101F100000200C46FFF76AFF2A681368591C1160FD
:101F2000E9682A8A641AB4FBF2F41C70BDE83840F0
:101F30000020FFF763BF00BF826842B110B50446BE
:101F400043690168006998470023A36010BD70478A
:101F50000EB400B582B0039921B104AB01AA01937C
:101F600000F0B6F802B05DF804EB03B0704700BFB4
:101F70002DE9F04F154683B0A942DDF830900D9A57
:101F80000F4606469A46C0F09E800B464FF0010869
:101F9000B3FBF5F39D4208F10108F9D9D04538BFEC
:101FA000D04612F00103019302D1B9F1000F67D1BD
:101FB000B268BAF1010F4FF0010406D90AF1FF3AF5
:101FC000BAF1010F05FB04F4F8D8B7FBF4F39D4216
:101FD00005D805FB04F4B7FBF4F39D42F9D9DFF80B
:101FE000ECA007E0AC42B4FBF5F31AD3B2681C4690
:101FF000B7FBF3F31AF803B0BBF10A0F04FB137736
:1020000028D03368511CB16003F802B0D6E9013220
:102010009A42E7D33046FFF78FFFB4FBF5F3AC42AB
:10202000E4D2019B9BB1B9F1000F10D02024C84528
:1020300009F1FF390BD2B3683268591CB160D4542E
:10204000D6E901329A4214D2B9F1000FEFD103B0B0
:10205000BDE8F08F511C3368B1604FF00D01995409
:10206000D6E901329A42CCD33046FFF765FFB26819
:10207000C7E73046FFF760FFB9F1000FD7D1E6E7B9
:1020800093071AD42024B268C84502F1010190D206
:102090003368B1609C54D6E901329A4209F1FF39A4
:1020A00003D2B9F1000FEFD183E73046FFF744FFC9
:1020B000B268B9F1000FE7D17BE7BAF1000F0CBFAE
:1020C00030242024DFE74FF0010867E738430000A1
:1020D000002900F05C822DE9F04FDFF870950D7853
:1020E00085B0064690460C464FF00D0A0FE00A2DCB
:1020F000B36800F08E803268591CB160D554D6E9BF
:1021000001329A4280F081802578002D69D0013417
:10211000002D66D0252DEAD10027234614F8012B87
:102120002D2A6CD0302A6DD02B2A61D02A2A7FD05C
:10213000A2F1300109294FF000050BD805EB850508
:1021400002EB450513F8012FA2F130010929A5F191
:102150003005F3D92E2A1C4675D0002301E014F86F
:10216000012F02F0FB016829F9D0252A00F08681B1
:10217000583AD1B2202930D8202A2ED8DFE812F0E0
:1021800021002D002D002D002D002D002D002D00F3
:102190002D002D002D00FE0079002D002D002D00BA
:1021A0002D0079002D002D002D002D002D002D007B
:1021B000BD002D002D001A012D0016012D002D004F
:1021C0002100D8F800101022081DC8F80000096886
:1021D0003046CDE90057FFF7CBFE01342578002DBE
:1021E00095D1337B002B40F0438105B0BDE8F08FE3
:1021F000234614F8012B2D2A47F0040792D147F00B
:1022000001078AE747F0020787E73046FFF794FEA9
:102210007AE73268591CB16002F803A0D6E90123BD
:102220009342FFF468AF3046FFF786FEB36862E77B
:10223000D8F80020111DC8F8001015685A782E2A09
:1022400003F1010489D16278A2F13003092B04F172
:1022500001044FF0000384D803EB830302EB430334
:1022600014F8012FA2F130010929A3F13003F3D9A9
:1022700077E7D8F80020111DC8F80010D2F800B098
:102280008BEAEB72A2EBEB72092A40F3DB81DFF8F9
:10229000C0C3012011466329ACFB02E200F101003A
:1022A0004FEAD202F6DC9842024638BF1A46029242
:1022B000002D00F01E81BBF1000FC0F22E817A07C5
:1022C00000F12B81B80740F12A81002B40F02781D3
:1022D000BBF1000FC0F27D817A0700F18D8107F01C
:1022E0000302022A00F05D81CDE9005759460A2217
:1022F0003046FFF73DFE013470E7D8F800301A1D74
:10230000C8F800201F68B3683268581C3021B060DC
:10231000D154D6E90123934280F0FA80591C3268E7
:10232000B1607821D154D6E901329A4280F0EB8035
:102330000F2F03D93B461B090F2BFCD84FF08055BC
:1023400006E00F2D4FEA15137FF647AFB2681D4622
:10235000B7FBF5F319F803B0BBF10A0F05FB1377D0
:1023600077D03368511CB16003F802B0D6E901326E
:102370009A42E6D33046FFF7DFFDE2E7D8F80030B7
:102380001A1DC8F800201D78B3680A2D00F03A81A4
:102390003268591CB160D554D6E901329A42FFF433
:1023A0001CAF3046FFF7C8FD013417E7D8F800101E
:1023B0000A2209E7D8F800301A1DC8F8002017F0E3
:1023C0000107D3F800B064D1BBF1000F03D0584629
:1023D00001F0ECFE0746BD4215D9202201E0BD42C6
:1023E00011D0B1683368481CB0605A54D6E9013046
:1023F000984205F1FF35F2D33046FFF79DFDBD420F
:102400004FF02002EDD19BF80050002D3FF4E5AED7
:102410000A2DB0680FD03368421CB2601D54D6E953
:102420000130984280F0B4801BF8015F002D3FF42A
:10243000D4AE0A2DEFD13368421CB26003F800A07D
:10244000D6E901309842E6D33046FFF775FDB06813
:10245000E1E73368511CB16003F802A0D6E901320C
:102460009A42FFF47EAF3046FFF766FDB26878E728
:10247000304605B0BDE8F04FFFF75EBDB368316888
:10248000581CB060CA54D6E901329A4289D201344C
:10249000A4E69BF80030002B00F0D680B0685F46C1
:1024A000CBF101020A2B02EB070B5ED0411CB1609D
:1024B00031680B54D6E90130984248D217F8013FF1
:1024C000002BEFD15D457FF688AE202702E05D4509
:1024D0003FF483AEB2683368511CB1609F54D6E9B3
:1024E00001329A4205F1FF35F1D33046FFF724FD62
:1024F000EDE7B80705D5002B3FF4EAAEF9073FF545
:10250000E7AE0025E4E63046FFF716FDB2680FE7B8
:102510003046FFF711FDB36800E7013DD2E6F90749
:102520003FF5D6AE002DECD020220299A942BFF48F
:10253000CFAEB168481CB06030684254D6E90101A2
:10254000814205F1FF356CD2002DEED1D9E730463E
:102550000292FFF7F1FC17F8013F002BB2D0029A6C
:10256000B0680A2B02EB070BA0D1411CB1603168A7
:1025700001F800A0D6E90110884297D33046CDE992
:102580000232FFF7D9FCDDE90232B0688EE770470E
:102590003046FFF7D1FC1BF8015F002D7FF438AF08
:1025A0001BE6002B7FF4A0AE8DB1302202998D4244
:1025B0007FF69AAEB168481CB06030684254D6E9E4
:1025C0000101814205F1FF3535D2002DEED1002504
:1025D0008AE6B1683268481CB060CBF1000B2D2050
:1025E0005054D6E901219142FFF479AE304603936D
:1025F000FFF7A2FC039B72E6B1683268481CB0602A
:102600002B20EDE73268591CB16002F803A0D6E92F
:1026100001239342FFF4BCAE3046FFF78DFCB36854
:10262000B6E630460393FFF787FC039B2022002D7C
:102630007FF47BAF65E730460393FFF77DFC039B98
:102640003022C2E701202EE69B463BE738430000DC
:10265000CDCCCCCCFFF716BC2DE9F041058A033177
:10266000043D4E198046B6FBF5F6FFF729FCA0B3F2
:10267000F6B24FF48073013E04468380C580C0F8F3
:1026800000802BD00346002508E06279AE4202F1BB
:10269000010262713860C0F800801FD040461F46BA
:1026A000FFF70EFC013503460028EED16779791E4D
:1026B00017D02246013399421268FBD1D2F800802C
:1026C0005FB12668002501E0344636682146404661
:1026D0000135FFF71BFCAF42F6D800242046BDE8C9
:1026E000F08120682146FFF711FCF6E70121043054
:1026F000FFF798BB2DE9F041012104460430FFF7B4
:102700009DFB10F0FF0301D0BDE8F0816779791ED1
:1027100016D02246013399421268FBD1D2F80080CC
:10272000002FF1D02668002501E0344636682146A6
:1027300040460135FFF7EAFBAF42F6D8BDE8F0812D
:1027400020682146BDE8F041FFF7E0BB2DE9F843E2
:102750008846C788417907FB01F1043902EB030C75
:102760001E1D6145154638BFCD1AB7420446B6FB5B
:10277000F7F207FB126002D8013A2468FCD13E1A36
:10278000AE4228BF2E469DB14FF000090430AD1B6C
:10279000324608EB0901204401F0F2FCAF42B1449B
:1027A00024683E464FF0000028BF2E46002DEDD194
:1027B000BDE8F8832DE9F8430446C788407907FB54
:1027C00000F0043802EB030C1E1D6045154638BFAF
:1027D000C51AB7428846B6FBF7F107FB116202D86B
:1027E00001392468FCD1BE1AAE4228BF2E469DB1E5
:1027F0004FF00009111DAD1B3246214408EB0900C2
:1028000001F0BEFCAF42B14424683E464FF00002E6
:1028100028BF2E46002DEDD1BDE8F8838268002345
:10282000936082681361826853618268D3608268B2
:10283000536082681360704710B584B002780D4C05
:102840000D4B8DF800208268B0F804C053F8213099
:102850008DF8062054F82110C2684469006902907E
:10286000ADF804C003948DF807206846984704B07B
:1028700010BD00BF80060020880600202DE9F04F23
:10288000164690F800A0534A42F82A60524A42F88D
:102890002A304B7B81B080460C4663B94F4A002EEC
:1028A000534608BF3246214608F1040001B0BDE896
:1028B000F04F00F049BB0B68494FDFF828B103F532
:1028C000E0724FF0A04340F20C6143F822106268BE
:1028D00002F5E0724FF0010943F8221021681F2928
:1028E00084BF01F01F0103F5407301228A40C3F841
:1028F000082563681F2B8ABF3A4A4FF0A04203F0B5
:102900001F0309FA03F3C2F8083523684FF0A04209
:1029100003F5E07340F20D6142F82310636803F59C
:10292000E07347EA090742F823104FF48070B84774
:10293000002562681F2A8ABF5B464FF0A04302F061
:102940001F01D3F8103598BF1146CB40DB073DD4AB
:1029500023681F2B8ABF5A464FF0A04203F01F0383
:1029600009FA03F3C2F80C354FF48070B8472368B6
:102970001F2B86BF03F01F035A464FF0A04209FAEF
:1029800003F3C2F808354FF480700135B847092DBC
:10299000CFD162681F2A8ABF12494FF0A04102F0CE
:1029A0001F02012303FA02F2C1F80C254FF48070D4
:1029B000B84762681F2A86BF0A4902F01F024FF01B
:1029C000A04101239340C1F8083567E7002DE1D10C
:1029D00064E700BF88060020800600203928000038
:1029E000504300000003005030B50A4B0A4C53F826
:1029F000213054F82110027885B0D0E901548DF8C7
:102A00000020C26801958DF80840039268469847F7
:102A100005B030BD980600209006002030B50A4B66
:102A20000A4C53F8213054F82110027885B0D0E9CF
:102A300001548DF80020C26801958DF8084003927A
:102A40006846984705B030BD9806002090060020E3
:102A5000F0B5184B067843F82620174B0446487FFC
:102A600098551546154A8E46096942F8261022786F
:102A70009F5CBEE80F0089B0EC46ACE80F009EE812
:102A80000F008CE80F0004964FB1002D0C4A6946E8
:102A900008BF2A46201D00F073FF09B0F0BD002DCD
:102AA000084A694608BF2A4604F10C0000F0C4FC3D
:102AB00009B0F0BD98060020A00600209006002076
:102AC000E92900001D2A0000014B1B68184700BFC0
:102AD000A406002038B50C4B984213D100200D46B7
:102AE000FFF784F9094B1C7924B10020FFF786F920
:102AF000112038BD012220461D601A71FFF77EF9B2
:102B0000204638BD002038BD00200040A40600202B
:102B1000034B984203D1034B00221A601A7170478D
:102B200000200040A40600200B7B0246032B1FD888
:102B3000DFE803F0262014028B68580326D48B6844
:102B40005B0315D4D2F84C354969994210D0002066
:102B50000621C2F80005C2F800157047D2F84C35BE
:102B600008699842F3D1D2F83C3549699942EED1CF
:102B700001207047D2F83C3509699942E7D1F7E75F
:102B8000D2F84C3509699942E1D1F1E7D2F84C35D8
:102B900008699842DBD1D2E7F0B56F4BD3F8242116
:102BA0008DB052B10022C3F82421D3F8242105921C
:102BB000059AD3F80421002A7ED0674D674CD5F8DA
:102BC0000431002B36D00023C5F80431236AD5F830
:102BD000042104925806049A04D494F82E20002A62
:102BE00000F0938013F004055FD15D4FDFF868C1FA
:102BF0000FCF07AE0FC63B683360CCF86051DCF8EE
:102C000060310293029BCCF85C51DCF85C3194F8A3
:102C100030600393039B002E72D14F4B0022C3F808
:102C20000022A2604F4AC3F808234F4B0822C3F882
:102C300080211BE0C5F84831D5F84821237B01925B
:102C4000019A002B6BD104F10C0EBEE80F000DF1C0
:102C50001C0CACE80F0094F83060DEF80030CCF8C3
:102C60000030002E41D0256A05F004053A4AD2F81A
:102C7000C434C2F8C43499070FD501238DF8183035
:102C80000EB984F82F6015B194F82E301BB1D4E939
:102C9000003106A898470DB0F0BD5A0708D4DB07ED
:102CA0004FD503238DF81830EAE794F83060DDE75C
:102CB00002238DF81830E3E7284C0222A168C3F8FC
:102CC0000813A260A268C3F80423D3F860211AB1E4
:102CD000D3F800329D0503D41F4B01221A625A61BA
:102CE000012384F82E300DB0F0BD1E4A1E4BC5F8EE
:102CF0000062A660C5F808230822C3F88021B2E765
:102D000094F82E30002BB1D087E721462846FFF7F4
:102D10000BFF80F00100236A84F82E0062E7114B5C
:102D20004FF4007140F20222C5F80012A260C5F80B
:102D30000833A268C5F804230123AB602B620DB0F1
:102D4000F0BD94F82E301BB104238DF8183097E7AE
:102D50008DF8183094E700BF00300040AC0600202A
:102D6000B806002002029C0100E100E0F0B54FF03F
:102D700040238DB0D3F8242152B10022C3F824217E
:102D8000D3F824210592059AD3F80421002A7FD094
:102D90004FF0402C684CDCF80431002B37D0002376
:102DA000CCF80431656DDCF8043104936806049BAB
:102DB00004D494F86230002B00F0948015F00405E0
:102DC0005FD15E4F0FCF07AE0FC64FF0402C3B6870
:102DD0003360CCF86051DCF860310293029BCCF890
:102DE0005C51DCF85C3194F864600393039B002E23
:102DF00073D14FF040230022C3F80022E263504A0F
:102E0000C3F808234F4B1022C3F8802119E0CCF8F7
:102E10004831DCF8482194F840300192019A002BA7
:102E20006BD104F1400EBEE80F0007AD0FC594F85A
:102E30006460DEF800302B60002E43D0656D05F035
:102E400004054FF04022D2F8C434C2F8C4349907C4
:102E50000FD501238DF818300EB984F8636015B1D1
:102E600094F862301BB1D4E90D3106A898470DB033
:102E7000F0BD5A0708D4DB0753D503238DF818306B
:102E8000EAE794F86460DCE702238DF81830E3E7A2
:102E9000294C0222E16BC3F80813E263E26BC3F82A
:102EA0000423D3F860211AB1D3F800329D0504D46D
:102EB0004FF0402301221A625A61012384F86230E4
:102EC0000DB0F0BD1E4A1F4BCCF80062E663CCF893
:102ED00008231022C3F88021B0E794F86230002B59
:102EE000AFD086E704F134016046FFF71DFE80F0A5
:102EF0000100656D84F8620060E7114B4FF40071CA
:102F000040F20222CCF80012E263CCF80833E26B04
:102F1000CCF804230123CCF80830CCF820300DB0D5
:102F2000F0BD94F862301BB104238DF8183093E79C
:102F30008DF8183090E700BFAC060020EC060020AA
:102F400002029C0100E100E02DE9F84F90F804A096
:102F5000DFF80C81342707FB0AF708EB07069B46CE
:102F600096F82D30002B66D1394B05460C4600688B
:102F700053F82A109146FFF7ADFD002865D148F8B7
:102F80000790B060C6F804B086F82F0086F83000CD
:102F9000637B86F8323023681F2B86BF03F01F0344
:102FA0002C4A4FF0A04203F5E07340F20C6142F866
:102FB000231063681F2B86BF03F01F03254A4FF0C1
:102FC000A04203F5E07340F20C6142F82310D4E90B
:102FD00000212B68C3F80825C3F80C15A268C3F8B4
:102FE0002425B9F1000F1ED02A68237B42F3073154
:102FF00000294FEA123221DB01F160415B0101F54A
:103000006141DBB281F800332B681A0B43F30733BD
:10301000002B08DB104C5B09012102F01F0201FAB2
:1030200002F244F82320342303FB0A88012388F8A2
:103030002D30BDE8F88F0820BDE8F88F074902F071
:103040000F025B01DBB28B54DEE71120BDE8F88F85
:10305000644300000003005000E100E014ED00E0D4
:10306000AC0600200279064B01684FF0340C0CFBD3
:10307000023306200222C1F8000583F82D20704794
:10308000AC0600202DE9F0430579754F04684FF038
:10309000340E0EFB05FE07EB0E0C00208CF82E0004
:1030A00002F06040B0F1005F89B040F0C2806D482E
:1030B000C4F808039CF82F6006F0FF00002E40F0D3
:1030C000BC8005EB450605EB860607EB86094FEA53
:1030D000860801268CF82F6089F80C60C4F88815E2
:1030E000C4F804018CF80D10D4F804110191019971
:1030F000C4F82401D4F8241102910299C4F86001A3
:10310000D4F8601103910399C4F84801D4F8481128
:1031100004910499C4F85005CCE90430C4F8400582
:10312000C4F83425C4F838354FF48053C4F800325D
:103130000223CCE906208CF83000CCF82000CCF833
:1031400008302662266057F80E206AB3DCF8083093
:1031500043F00203CCF80830DCF8083043F4007385
:10316000CCF80830DCF80830C4F8043309B0BDE806
:10317000F083D4F80431002B4BD0C4F80421D4F8E8
:1031800004310593059BD4F824311BB30123C4F803
:103190002421D4F8241107910799D4F86001D4F8B8
:1031A000001280B926626661D4F84831002BE0D065
:1031B000D4F80431002BE6D0C4F80421D4F804314B
:1031C0000593059BDFE711F4007F27D0C90529D4BB
:1031D000002BE9D03423D4F8C424C4F8C42403FB5E
:1031E0000575002385F82F307AB312F0010F18BF50
:1031F0004FF4024048F2012308BF032012F0020FEF
:1032000018BF184648F2022312F0040F18BF1846E0
:10321000ACE7D4F824110029C6D0B8E7CB05266264
:103220006661C1D5C4F84821D4F848310693069B9D
:10323000BAE7102009B0BDE8F083DCF80830C4F824
:103240000433112009B0BDE8F08307EB08012046E4
:10325000FFF76AFC002814BF0020032086E700BFA8
:10326000AC06002002029C0110B5714AD2F804336A
:1032700099058AB068D5D2F82431002B64D0002398
:10328000C2F82431D2F8243101934FF40171694B13
:103290000198C2F8081393F8291009B90121516067
:1032A000634902228DF81820D1F88024C1F88024C7
:1032B0009FED5D7B9969D868CDE9081283ED067BA7
:1032C000D3E90012079006A89047594AD2F81C315A
:1032D000C3B1584B5869196A88426AD993F82810C3
:1032E00001F0FF00002964D1C2F81C01D2F81C11C2
:1032F000039103999C68186A196A205C013119626C
:10330000C2F81C054A4AD2F84431DBB10021494BCE
:10331000C2F84411D2F8440193F8291000900098A3
:1033200009B1012111609A6962B1D8685C6A002113
:103330000122CDE9070499618DF8182006A8D3E988
:10334000001290470AB010BD394AD2F804335B0727
:10335000BBD5D2F80831002BB7D0364B996900297C
:103360003ED00021C2F80811D2F808110491049946
:10337000D868596AD2F8182542545A6A99690132B4
:103380005A625A6A8A42A0D1DA69002A31D09A6117
:103390001A69D8685C6ADA60002101220894D96150
:1033A000596207905C6819688DF8182006A8A04734
:1033B0008BE71F4A0020C2F81C01D2F81C210292A0
:1033C000029A5A69002A9DD0D3E901215C698DF8DF
:1033D0001800CDE907145861196806A8904791E7CD
:1033E000C2F80811D2F8080105900598D2F81825FE
:1033F000C7E793F8292012B90D4A012151600C4A00
:103400004FF40171C2F80813D8685C6A00210122E8
:1034100099618DF81820D3E90012CDE9070406A8B8
:10342000904752E7AFF3008000000000000000006A
:1034300000200040180700202DE9F041734E90F85D
:1034400004802C2303FB086382B093F82A30002BFE
:1034500040F09C8005460C4600686D491746FFF712
:1034600039FB002840F08E802368591C19D01F2B8F
:103470004FF001028ABF67494FF0A04103F01F03DC
:1034800002FA03F3C1F8083523681F2B86BF03F047
:103490001F03604A4FF0A04203F5E073032142F896
:1034A000231063685A1C0BD01F2B86BF03F01F0329
:1034B000584A4FF0A04203F5E073002142F8231070
:1034C0002B68A269C3F82425227D637D13432A68F3
:1034D000C2F86C35D4E900122B68C3F81425C3F880
:1034E0000C15237D012B5CD02C2303FB08F3F21871
:1034F00057602269F25097B32A68237F0021C2F8EF
:103500001C11D2F81C210092009A2A68C2F84411BA
:10351000D2F844210192019A2A683F49C2F8041363
:103520002A6842F3073100294FEA123232DB01F1F7
:1035300060415B0101F56141DBB281F800332B682A
:1035400043F30732002A4FEA133109DB334C5209A7
:10355000012301F01F0103FA01F144F822102B6846
:103560000422C3F800252C2303FB08660122002354
:10357000C6E9063386F82930736186F82A2002B03E
:10358000BDE8F081112002B0BDE8F081082002B052
:10359000BDE8F081224902F00F025B01DBB28B54DF
:1035A000CDE7A368591C0BD01F2B86BF03F01F0368
:1035B00018494FF0A04103F5E073002241F82320A1
:1035C000E3685A1C1AD01F2B8ABF12494FF0A04142
:1035D00003F01F03012202FA03F3C1F80835E36880
:1035E0001F2B88BF03F01F0303F5E0738CBF09494D
:1035F0004FF0A041032241F82320E3682A68A16824
:10360000C2F80835C2F810156EE700BF1807002091
:1036100069320000000300508000020000E100E079
:1036200014ED00E0F8B5036807793D4C0022C3F8BB
:1036300000252C2303FB07435B68C3B10368394AA9
:10364000C3F80823036843F30732002A4FEA133113
:103650000EDB5209344D2032012301F01F0103FA21
:1036600001F145F82210BFF34F8FBFF36F8F03684E
:10367000D3F80C65D3F81455D3F80825D3F81015F2
:103680004FF0FF3CC3F814C5C3F80CC5036866458A
:10369000C3F808C5C3F810C50CD01F2E86BF06F0AE
:1036A0001F06224B4FF0A04306F5E0764FF0020CC8
:1036B00043F826C06E1C0BD01F2D86BF05F01F05DA
:1036C0001A4B4FF0A04305F5E075022643F825603C
:1036D0004D1C0BD01F2986BF01F01F01134B4FF06B
:1036E000A04301F5E071022543F82150531C0BD093
:1036F0001F2A86BF02F01F020C4B4FF0A04302F5B9
:10370000E072022143F822100068FFF701FA2C232F
:1037100003FB0744002384F82A306360F8BD00BF30
:10372000180700208402020000E100E000030050BE
:103730002DE9F041334C90F804E02C2303FB0E43B9
:103740008446586984B000284ED15A619960186245
:1037500083F82800DCF80020C2F81C01D2F81C21F4
:103760000292029ADCF8002001219160DCF800202E
:103770009D68C2F81C01D2F81C1101910199196AC7
:103780006E5C196A01311962C2F81C655A6812B17F
:1037900004B0BDE8F0815E691A6ADCF80010964258
:1037A0001BD9074602E093F828200ABBD1F81C2158
:1037B000002AF8D0C1F81C71D1F81C210392039A99
:1037C0001A6A15F802801A6A01321A62C1F81C8559
:1037D0001A6A9642EAD8DCF80010D1F81C31002BA6
:1037E000FBD00123CB6004E0112004B0BDE8F081E0
:1037F0000F202C2303FB0E440023636104B0BDE8BB
:10380000F08100BF1807002010B55B4BD3F82421CE
:103810008AB0002A58D00022C3F82421D3F82411FA
:10382000049102228DF818200499544AD3F8801488
:10383000C3F880149FED4E7B0991D3F83C45D068C6
:1038400082ED067BCDE90704D2E9001306A898476C
:10385000494BD3F8442152B10021484AC3F84411DE
:10386000D3F84401916903900398002961D1424B38
:10387000D3F8202162B10020C3F82001D3F8202121
:10388000029201213D4A029CD9605169002943D12D
:10389000394BD3F85821AAB10020C3F85801D3F806
:1038A0005811364A01910199516959B1D3F84C45E3
:1038B0008DF81800D2E901315061CDE9071406A84E
:1038C000116898470AB010BDD3F810110029BFD075
:1038D000C3F81021D3F81011284C05910599A1695E
:1038E000D3F83C058842B3D1E169002933D0C4E95B
:1038F0000612D3F8002222F02002C3F80022E26868
:103900000792012122698DF81810089063682168D8
:10391000E26006A898479BE7D3F84C458DF818005D
:10392000D2E901315061CDE9071406A81168984722
:10393000AEE79FED0F7BD3F83C45D0684FF0010C0C
:10394000CDE9070482ED067BD2E900138DF818C09B
:1039500006A898478BE7E268A1610123CDE907201B
:103960008DF8183006A8D4E90013984770E700BF17
:103970000000000000000000002000404807002078
:103980002DE9F04307797F4E07EBC70306EB83036E
:1039900087B093F82030002B40F0B58004460D46E8
:1039A000006879499046FFF795F8002840F0A78015
:1039B0002B68591C4FEAC70919D01F2B4FF0010281
:1039C0008ABF72494FF0A04103F01F0302FA03F3CC
:1039D000C1F808352B681F2B86BF03F01F036B4A05
:1039E0004FF0A04203F5E073032142F823106B6807
:1039F0005A1C0BD01F2B86BF03F01F03634A4FF0E6
:103A0000A04203F5E073002142F823102368AA695D
:103A1000C3F824252B7D6A7D1A432368C3F86C25DF
:103A2000D5E900312268C2F80C35C2F814152B7D97
:103A3000012B73D009EB070206EB8203C3F8048065
:103A40002B6946F82230B8F1000F47D021682B7F50
:103A50000022C1F81021D1F81011019101992168BB
:103A6000C1F82021D1F82011029102992168C1F8F2
:103A70002421D1F82411039103992168C1F844212C
:103A8000D1F84411049104992168C1F85821D1F862
:103A900058210592059A22683D49C2F8041322680C
:103AA00042F3073100294FEA123230DB01F1604165
:103AB0005B0101F56141DBB281F80033226842F31A
:103AC0000733002B4FEA123109DB324D5B0901222B
:103AD00001F01F0102FA01F145F8231022684F445A
:103AE00006EB87060121002386F820100821C2F882
:103AF0000015C6E90633736107B0BDE8F0831120F5
:103B000007B0BDE8F083082007B0BDE8F083224984
:103B100002F00F025B01DBB28B54CFE7AB68591C9C
:103B20000BD01F2B86BF03F01F0318494FF0A04195
:103B300003F5E073002241F82320EB685A1C1AD0E9
:103B40001F2B8ABF11494FF0A04103F01F03012230
:103B500002FA03F3C1F80835EB681F2B88BF03F0A6
:103B60001F0303F5E0738CBF08494FF0A041032207
:103B700041F82320EB682268A968C2F80835C2F82A
:103B8000101557E7480700200938000000030050CF
:103B90001003420000E100E014ED00E02DE9F041E7
:103BA0000579564C05EBC50304EB830301465B68BE
:103BB000006882B0EE00C3B1514BC0F808330B6807
:103BC00043F30732002A4FEA13330EDB5209DFF8C2
:103BD00038C12032012703F01F0307FA03F34CF822
:103BE0002230BFF34F8FBFF36F8F731904EB830342
:103BF0009A69D0F8003223F02003C0F8003242B1B5
:103C00000023C0F84431D0F844310093009B0123D5
:103C100043600023C0F85831D0F858310193019B1C
:103C20007319012204EB8303C2609A69D0F85831FA
:103C3000002BFBD01AB1D0F84431002BF6D0002372
:103C4000C0F800350B684FF0FF38D3F80CE5D3F817
:103C500014C5D3F80825D3F81075C3F80C85C3F83C
:103C600014850B68C645C3F80885C3F810850CD0C9
:103C7000BEF11F0F86BF0EF01F0E22494FF0A0416C
:103C80000EF5E07E022341F82E30BCF1FF3F0CD050
:103C9000BCF11F0F86BF0CF01F0C1A494FF0A0415A
:103CA0000CF5E07C022341F82C30791C0BD01F2F3F
:103CB00086BF07F01F0713494FF0A04107F5E077D3
:103CC000022341F82730531C0BD01F2A86BF02F075
:103CD0001F020C494FF0A04102F5E072022341F8A7
:103CE0002230FEF715FF354404EB8504002384F8E9
:103CF0002030636002B0BDE8F08100BF48070020BB
:103D0000100342000003005000E100E001F0604CAD
:103D1000BCF1005F30D170B590F804E0264C0EEB9A
:103D2000CE0C04EB8C0C0346DCF8140082B04FEA96
:103D3000CE0500283BD1CCF81420CCF808101A6826
:103D4000C2F82001D2F820210192019A1A68C2F823
:103D50005801D2F858210092009A1A68DCF81460D1
:103D6000C2F84415C2F848651A6801219160DCF870
:103D700004201AB102B070BD102070471A6800E02C
:103D8000C0B9D2F82011D2F858010029F8D088B96A
:103D90000121D1601B68D3F85821002AFBD005EB24
:103DA0000E0304EB830300225A6102B070BD1120A0
:103DB00002B070BD0F20F2E74807002000000000AD
:103DC00010B59FED0F7B84B0022100234FF0CC741F
:103DD000CDE902410C481A4669468DED007BFEF79D
:103DE0004DFD20B90948FFF73DF904B010BDFDF7BE
:103DF000B7FF0648FFF736F904B010BDAFF30080F7
:103E00000D0000000F000000D4430000D843000064
:103E10002DE9F041002182B00846FDF7EBFB0028B8
:103E200038D1FDF771FB1D4F1D4B1E49FF1AFF08CE
:103E30003F0447F003073846FDF7BCFDFDF72AFCB9
:103E400006460028FAD1FFF7BBFF174DDFF8608068
:103E5000012401230DF10702E1B22846FFF712F910
:103E600040B1FDF717FC0028FBD10134802CF0D1C4
:103E70003EB1FEE7224641463846FDF737FD0126B2
:103E8000EFE70A493846FDF795FDFDF703FC0028EA
:103E9000FBD1EEE7FDF764FFC3E700BF1C45000060
:103EA000FC4400007C430000D8430000BC430000F9
:103EB0009443000010B44FF08053D3F83021082A07
:103EC00023D0844AD2F8883043F47003C2F8883093
:103ED000BFF34F8FBFF36F8F4FF08053D3F8302174
:103EE000082A00F0B3804FF01023D3F80022002AF4
:103EF000C0F2BF80D3F80432002BC0F2BA80764BF8
:103F0000764A1A605DF8044B70474FF080410020FC
:103F1000C1F80C01724AC1F81001C1F83805D3F894
:103F20000414C2F82015D3F80814C2F82415D3F8E5
:103F30000C14C2F82815D3F81014C2F82C15D3F8B5
:103F40001414C2F83015D3F81814C2F83415D3F885
:103F50001C14C2F84015D3F82014C2F84415D3F845
:103F60002414C2F84815D3F82814C2F84C15D3F815
:103F70002C14C2F85015D3F83014C2F85415D3F8E5
:103F80003414C2F86015D3F83814C2F86415D3F8A5
:103F90003C14C2F86815D3F84014C2F86C15D3F875
:103FA0003411D3F84434C2F87035052942D84D4B4A
:103FB0005B5C1BB14C4B4D4AC3F88C264C4B5B5C95
:103FC00073B14FF080534B49D3F83021FB20C1F837
:103FD0001805082AD3F834117FF473AF052929D8BE
:103FE000454B5B5CBBB14FF080524FF08040D2F844
:103FF0005832D0F8E41ED2F8304121F00F0103F01E
:104000000F030B43C0F8E43E082CD2F834117FF4C0
:1040100058AF05290ED8394B5B5C5BB14FF080532C
:10402000374AD3F830314FF40071082BC2F84016EC
:104030007FF447AF4FF08043D3F80024D2077FF5D9
:1040400040AF6FF00102C3F800243AE7D3F83431EF
:10405000052B08D94FF010224FF08043D2F80822E8
:10406000C3F858253FE7274AD35C002B3FF43BAF0A
:10407000F0E7254A0123C2F80435D2F80034002BBA
:10408000FBD04FF0102312211F4AC3F80012D2F8C0
:104090000034002BFBD04FF0102312211A4AC3F832
:1040A0000412D2F80034002BFBD000231649C2F8CA
:1040B0000435D1F80034002BFBD0BFF34F8F0549F6
:1040C000124BCA6802F4E0621343CB60BFF34F8F18
:1040D00000BFFDE700ED00E0240000200090D003C9
:1040E00000C00040EC430000005000404881030045
:1040F000EC43000000F00040EC430000EC43000003
:1041000000900240E443000000E001400400FA0592
:1041100008B5074B044613B10021AFF30080054BEF
:104120001868836A03B19847204600F047F800BF3B
:1041300000000000F444000070B50D4D0D4C641BF0
:10414000A4100026A64209D10B4D0C4C00F038F803
:10415000641BA4100026A64205D170BD55F8043B8F
:1041600098470136EEE755F8043B98470136F2E7E9
:104170008800002088000020880000208C0000209B
:104180000A44914200F1FF3300D1704710B511F895
:10419000014B03F8014F9142F9D110BD024403468F
:1041A000934200D1704703F8011BF9E7034613F867
:1041B000012B002AFBD1181A01387047FEE700BF17
:1041C000F8B500BFF8BC08BC9E467047F8B500BF04
:1041D000F8BC08BC9E467047FFFFFFFFFFFFFFFFD4
:1041E000FFFFFFFFFFFFFFFF0000000000000000D7
:1041F0000000D60106010000E11300005114000088
:10420000DD130000756172745F6C6F675F626163DC
:104210006B656E64000000004261636B656E6473E1
:1042200020666C7573686564000000006170700042
:10423000E40500207F000000640600201B5B313B8A
:1042400033316D0025734C6F67732064726F70702B
:104250006564202825642925730D0A001B5B306DD9
:1042600000000000257300003C25733E2025733AB2
:10427000200000000D0A00002025303278000000E8
:10428000202020007C000000256300001B5B313BE8
:1042900033306D001B5B313B33326D001B5B313BB8
:1042A00033336D001B5B313B33346D001B5B313BA3
:1042B00033356D001B5B313B33366D001B5B313B8F
:1042C00033376D006572726F720000007761726E35
:1042D000696E6700696E666F000000006465627554
:1042E000670000005C4200008C4200003C4200007D
:1042F000944200009C420000A4420000AC42000036
:10430000B4420000BC42000000000000C4420000B3
:10431000CC420000D4420000DC42000046617461DF
:104320006C206572726F720053797374656D2072C0
:104330006573657400000000303132333435363730
:104340003839414243444546000000000000000067
:104350000338FDD870470000505253005457494D60
:1043600000000000992B00006D2D000055415254B3
:1043700000000000554152544500000054574920A8
:104380007363616E6E657220737461727465642EFE
:104390000000000054574920646576696365206415
:1043A000657465637465642061742061646472651A
:1043B000737320307825782E000000004E6F206443
:1043C00065766963652077617320666F756E642E0C
:1043D000000000000000000000300040000000006D
:1043E00001000000000000000101000001000000C9
:1043F00000000020202020202020202028282828FD
:1044000028202020202020202020202020202020A4
:1044100020202088101010101010101010101010F4
:104420001010100404040404040404040410101004
:1044300010101010414141414141010101010101B0
:10444000010101010101010101010101010110103E
:104450001010101042424242424202020202020284
:104460000202020202020202020202020202101010
:1044700010102000000000000000000000000000FC
:10448000000000000000000000000000000000002C
:10449000000000000000000000000000000000001C
:1044A000000000000000000000000000000000000C
:1044B00000000000000000000000000000000000FC
:1044C00000000000000000000000000000000000EC
:1044D00000000000000000000000000000000000DC
:1044E00000000000000000000000000000000000CC
:0C44F00000000000280000200000000078
:1044FC0058430000000000005C4300000000000076
:10450C006C43000000000000744300000000000039
:08451C002C4200000000030323
:10452400F841000000000000044200001C000020CC
:10453400F4000020BC010020C4010020FC00002085
:04454400180000005B
:08454800F8CCFF7F0100000028
:10455000000000000020004000000000002000409B
:104560000000000000000000FF0000000090D003E9
:10457000000000000000000000000000000000003B
:10458000000000000000000000000000000000002B
:10459000000000000000000000000000000000001B
:1045A000000000000000000000000000000000000B
:1045B00000000000000000000000000000000000FB
:1045C00000000000000000000000000000000000EB
:0845D000251200000112000099
:04000003000012BD2A
:00000001FF
